{
  "contractName": "Kittycontract",
  "abi": [
    {
      "anonymous": false,
      "inputs": [
        {
          "indexed": true,
          "internalType": "address",
          "name": "owner",
          "type": "address"
        },
        {
          "indexed": true,
          "internalType": "address",
          "name": "approved",
          "type": "address"
        },
        {
          "indexed": true,
          "internalType": "uint256",
          "name": "tokenId",
          "type": "uint256"
        }
      ],
      "name": "Approval",
      "type": "event"
    },
    {
      "anonymous": false,
      "inputs": [
        {
          "indexed": false,
          "internalType": "address",
          "name": "owner",
          "type": "address"
        },
        {
          "indexed": false,
          "internalType": "uint256",
          "name": "kittenId",
          "type": "uint256"
        },
        {
          "indexed": false,
          "internalType": "uint256",
          "name": "momId",
          "type": "uint256"
        },
        {
          "indexed": false,
          "internalType": "uint256",
          "name": "dadId",
          "type": "uint256"
        },
        {
          "indexed": false,
          "internalType": "uint256",
          "name": "genes",
          "type": "uint256"
        }
      ],
      "name": "Birth",
      "type": "event"
    },
    {
      "anonymous": false,
      "inputs": [
        {
          "indexed": true,
          "internalType": "address",
          "name": "from",
          "type": "address"
        },
        {
          "indexed": true,
          "internalType": "address",
          "name": "to",
          "type": "address"
        },
        {
          "indexed": true,
          "internalType": "uint256",
          "name": "tokenId",
          "type": "uint256"
        }
      ],
      "name": "Transfer",
      "type": "event"
    },
    {
      "constant": true,
      "inputs": [],
      "name": "gen0Counter",
      "outputs": [
        {
          "internalType": "uint256",
          "name": "",
          "type": "uint256"
        }
      ],
      "payable": false,
      "stateMutability": "view",
      "type": "function"
    },
    {
      "constant": true,
      "inputs": [
        {
          "internalType": "uint256",
          "name": "",
          "type": "uint256"
        }
      ],
      "name": "kitties",
      "outputs": [
        {
          "internalType": "uint256",
          "name": "genes",
          "type": "uint256"
        },
        {
          "internalType": "uint256",
          "name": "birthTime",
          "type": "uint256"
        },
        {
          "internalType": "uint256",
          "name": "dadID",
          "type": "uint256"
        },
        {
          "internalType": "uint256",
          "name": "momID",
          "type": "uint256"
        },
        {
          "internalType": "uint256",
          "name": "generation",
          "type": "uint256"
        }
      ],
      "payable": false,
      "stateMutability": "view",
      "type": "function"
    },
    {
      "constant": true,
      "inputs": [],
      "name": "owner",
      "outputs": [
        {
          "internalType": "address",
          "name": "",
          "type": "address"
        }
      ],
      "payable": false,
      "stateMutability": "view",
      "type": "function"
    },
    {
      "constant": false,
      "inputs": [
        {
          "internalType": "uint256",
          "name": "_genes",
          "type": "uint256"
        }
      ],
      "name": "createKittyGen0",
      "outputs": [
        {
          "internalType": "uint256",
          "name": "",
          "type": "uint256"
        }
      ],
      "payable": false,
      "stateMutability": "nonpayable",
      "type": "function"
    },
    {
      "constant": false,
      "inputs": [
        {
          "internalType": "address",
          "name": "to",
          "type": "address"
        },
        {
          "internalType": "uint256",
          "name": "tokenId",
          "type": "uint256"
        }
      ],
      "name": "transfer",
      "outputs": [],
      "payable": false,
      "stateMutability": "nonpayable",
      "type": "function"
    },
    {
      "constant": true,
      "inputs": [
        {
          "internalType": "address",
          "name": "owner",
          "type": "address"
        }
      ],
      "name": "getOwnedIds",
      "outputs": [
        {
          "internalType": "uint256",
          "name": "",
          "type": "uint256"
        }
      ],
      "payable": false,
      "stateMutability": "view",
      "type": "function"
    },
    {
      "constant": true,
      "inputs": [
        {
          "internalType": "uint256",
          "name": "tokenId",
          "type": "uint256"
        }
      ],
      "name": "getKitty",
      "outputs": [
        {
          "internalType": "uint256",
          "name": "genes",
          "type": "uint256"
        },
        {
          "internalType": "uint256",
          "name": "birthTime",
          "type": "uint256"
        },
        {
          "internalType": "uint256",
          "name": "dadID",
          "type": "uint256"
        },
        {
          "internalType": "uint256",
          "name": "momID",
          "type": "uint256"
        },
        {
          "internalType": "uint256",
          "name": "generation",
          "type": "uint256"
        },
        {
          "internalType": "address",
          "name": "owner",
          "type": "address"
        }
      ],
      "payable": false,
      "stateMutability": "view",
      "type": "function"
    },
    {
      "constant": true,
      "inputs": [
        {
          "internalType": "address",
          "name": "owner",
          "type": "address"
        }
      ],
      "name": "balanceOf",
      "outputs": [
        {
          "internalType": "uint256",
          "name": "balance",
          "type": "uint256"
        }
      ],
      "payable": false,
      "stateMutability": "view",
      "type": "function"
    },
    {
      "constant": true,
      "inputs": [],
      "name": "totalSupply",
      "outputs": [
        {
          "internalType": "uint256",
          "name": "total",
          "type": "uint256"
        }
      ],
      "payable": false,
      "stateMutability": "view",
      "type": "function"
    },
    {
      "constant": true,
      "inputs": [],
      "name": "name",
      "outputs": [
        {
          "internalType": "string",
          "name": "tokenName",
          "type": "string"
        }
      ],
      "payable": false,
      "stateMutability": "view",
      "type": "function"
    },
    {
      "constant": true,
      "inputs": [],
      "name": "symbol",
      "outputs": [
        {
          "internalType": "string",
          "name": "tokenSymbol",
          "type": "string"
        }
      ],
      "payable": false,
      "stateMutability": "view",
      "type": "function"
    },
    {
      "constant": true,
      "inputs": [
        {
          "internalType": "uint256",
          "name": "tokenId",
          "type": "uint256"
        }
      ],
      "name": "ownerOf",
      "outputs": [
        {
          "internalType": "address",
          "name": "owner",
          "type": "address"
        }
      ],
      "payable": false,
      "stateMutability": "view",
      "type": "function"
    }
  ],
  "bytecode": "0x6080604052336000806101000a81548173ffffffffffffffffffffffffffffffffffffffff021916908373ffffffffffffffffffffffffffffffffffffffff160217905550610f41806100536000396000f3fe608060405234801561001057600080fd5b50600436106100b45760003560e01c806395d89b411161007157806395d89b41146102c8578063a9059cbb1461034b578063d5a776ca14610399578063e98b7f4d146103db578063eec1cbb71461046c578063ef5e94aa146104c4576100b4565b806306fdde03146100b957806318160ddd1461013c5780636352211e1461015a57806370a08231146101c85780638cc51eda146102205780638da5cb5b1461027e575b600080fd5b6100c16104e2565b6040518080602001828103825283818151815260200191508051906020019080838360005b838110156101015780820151818401526020810190506100e6565b50505050905090810190601f16801561012e5780820380516001836020036101000a031916815260200191505b509250505060405180910390f35b61014461051f565b6040518082815260200191505060405180910390f35b6101866004803603602081101561017057600080fd5b810190808035906020019092919050505061052c565b604051808273ffffffffffffffffffffffffffffffffffffffff1673ffffffffffffffffffffffffffffffffffffffff16815260200191505060405180910390f35b61020a600480360360208110156101de57600080fd5b81019080803573ffffffffffffffffffffffffffffffffffffffff1690602001909291905050506105f1565b6040518082815260200191505060405180910390f35b61024c6004803603602081101561023657600080fd5b810190808035906020019092919050505061063a565b604051808681526020018581526020018481526020018381526020018281526020019550505050505060405180910390f35b61028661067d565b604051808273ffffffffffffffffffffffffffffffffffffffff1673ffffffffffffffffffffffffffffffffffffffff16815260200191505060405180910390f35b6102d06106a2565b6040518080602001828103825283818151815260200191508051906020019080838360005b838110156103105780820151818401526020810190506102f5565b50505050905090810190601f16801561033d5780820380516001836020036101000a031916815260200191505b509250505060405180910390f35b6103976004803603604081101561036157600080fd5b81019080803573ffffffffffffffffffffffffffffffffffffffff169060200190929190803590602001909291905050506106df565b005b6103c5600480360360208110156103af57600080fd5b81019080803590602001909291905050506108cd565b6040518082815260200191505060405180910390f35b610407600480360360208110156103f157600080fd5b81019080803590602001909291905050506109cc565b604051808781526020018681526020018581526020018481526020018381526020018273ffffffffffffffffffffffffffffffffffffffff1673ffffffffffffffffffffffffffffffffffffffff168152602001965050505050505060405180910390f35b6104ae6004803603602081101561048257600080fd5b81019080803573ffffffffffffffffffffffffffffffffffffffff169060200190929190505050610ab9565b6040518082815260200191505060405180910390f35b6104cc610b02565b6040518082815260200191505060405180910390f35b60606040518060400160405280600a81526020017f4b6974747920436f696e00000000000000000000000000000000000000000000815250905090565b6000600280549050905090565b60008160028054905010158015610544575060008214155b6105b6576040517f08c379a00000000000000000000000000000000000000000000000000000000081526004018080602001828103825260198152602001807f5468697320746f6b656e20646f6573206e6f742065786973740000000000000081525060200191505060405180910390fd5b6004600083815260200190815260200160002060009054906101000a900473ffffffffffffffffffffffffffffffffffffffff169050919050565b6000600360008373ffffffffffffffffffffffffffffffffffffffff1673ffffffffffffffffffffffffffffffffffffffff168152602001908152602001600020549050919050565b6002818154811061064757fe5b90600052602060002090600502016000915090508060000154908060010154908060020154908060030154908060040154905085565b6000809054906101000a900473ffffffffffffffffffffffffffffffffffffffff1681565b60606040518060400160405280600381526020017f4b54430000000000000000000000000000000000000000000000000000000000815250905090565b600073ffffffffffffffffffffffffffffffffffffffff168273ffffffffffffffffffffffffffffffffffffffff161415610765576040517f08c379a000000000000000000000000000000000000000000000000000000000815260040180806020018281038252602c815260200180610ebc602c913960400191505060405180910390fd5b3073ffffffffffffffffffffffffffffffffffffffff168273ffffffffffffffffffffffffffffffffffffffff1614156107ea576040517f08c379a0000000000000000000000000000000000000000000000000000000008152600401808060200182810382526025815260200180610ee86025913960400191505060405180910390fd5b3373ffffffffffffffffffffffffffffffffffffffff166004600083815260200190815260200160002060009054906101000a900473ffffffffffffffffffffffffffffffffffffffff1673ffffffffffffffffffffffffffffffffffffffff16146108be576040517f08c379a000000000000000000000000000000000000000000000000000000000815260040180806020018281038252601b8152602001807f53656e64657220646f6573206e6f74206f776e20746f6b656e4964000000000081525060200191505060405180910390fd5b6108c9338383610b08565b5050565b60008060009054906101000a900473ffffffffffffffffffffffffffffffffffffffff1673ffffffffffffffffffffffffffffffffffffffff163373ffffffffffffffffffffffffffffffffffffffff161461092857600080fd5b600a61ffff16600154106109a4576040517f08c379a000000000000000000000000000000000000000000000000000000000815260040180806020018281038252601d8152602001807f5468652067617264656e206f66206564656e2068617320636c6f73656400000081525060200191505060405180910390fd5b6001600081548092919060010191905055506109c560008060008533610d35565b9050919050565b600080600080600080600287815481106109e257fe5b906000526020600020906005020160000154955060028781548110610a0357fe5b906000526020600020906005020160010154945060028781548110610a2457fe5b906000526020600020906005020160020154935060028781548110610a4557fe5b906000526020600020906005020160030154925060028781548110610a6657fe5b90600052602060002090600502016004015491506004600088815260200190815260200160002060009054906101000a900473ffffffffffffffffffffffffffffffffffffffff16905091939550919395565b6000600360008373ffffffffffffffffffffffffffffffffffffffff1673ffffffffffffffffffffffffffffffffffffffff168152602001908152602001600020549050919050565b60015481565b600073ffffffffffffffffffffffffffffffffffffffff168373ffffffffffffffffffffffffffffffffffffffff161415610be357816004600083815260200190815260200160002060006101000a81548173ffffffffffffffffffffffffffffffffffffffff021916908373ffffffffffffffffffffffffffffffffffffffff160217905550600360008373ffffffffffffffffffffffffffffffffffffffff1673ffffffffffffffffffffffffffffffffffffffff16815260200190815260200160002060008154809291906001019190505550610d30565b816004600083815260200190815260200160002060006101000a81548173ffffffffffffffffffffffffffffffffffffffff021916908373ffffffffffffffffffffffffffffffffffffffff160217905550600360008373ffffffffffffffffffffffffffffffffffffffff1673ffffffffffffffffffffffffffffffffffffffff16815260200190815260200160002060008154809291906001019190505550600360008473ffffffffffffffffffffffffffffffffffffffff1673ffffffffffffffffffffffffffffffffffffffff1681526020019081526020016000206000815480929190600190039190505550808273ffffffffffffffffffffffffffffffffffffffff163373ffffffffffffffffffffffffffffffffffffffff167fddf252ad1be2c89b69c2b068fc378daa952ba7f163c4a11628f55a4df523b3ef60405160405180910390a45b505050565b6000610d3f610e8c565b6040518060a001604052808581526020014267ffffffffffffffff1681526020018763ffffffff1681526020018863ffffffff1681526020018661ffff168152509050600281908060018154018082558091505090600182039060005260206000209060050201600090919290919091506000820151816000015560208201518160010155604082015181600201556060820151816003015560808201518160040155505050600060028054905090507f0a5311bd2a6608f08a180df2ee7c5946819a649b204b554bb8e39825b2c50ad584828a8a89604051808673ffffffffffffffffffffffffffffffffffffffff1673ffffffffffffffffffffffffffffffffffffffff1681526020018581526020018481526020018381526020018281526020019550505050505060405180910390a1610e7e60008583610b08565b809250505095945050505050565b6040518060a001604052806000815260200160008152602001600081526020016000815260200160008152509056fe446f6e27742073656e6420796f757220746f6b656e20696e746f2074686520656e646c657373206162797373446f6e27742073656e6420796f757220746f6b656e20746f20746869732061646472657373a265627a7a72315820b21176d4f5bc4976ff0afc6968eb4ed53dd183c15ae3c3438e90603e15bae40b64736f6c634300050c0032",
  "source": "pragma solidity ^0.5.12;\r\nimport \"./IERC721.sol\";\r\nimport \"./Ownable.sol\";\r\n\r\ncontract Kittycontract is IERC721, Ownable{\r\n\r\n    event Transfer(address indexed from, address indexed to, uint256 indexed tokenId);\r\n    event Birth(address owner, uint256 kittenId, uint256 momId, uint256 dadId, uint256 genes);\r\n\r\n    uint16 private constant gen0Limit = 10;\r\n    string private constant _name= \"Kitty Coin\";\r\n    string private constant _symbol = \"KTC\";\r\n    uint256 public gen0Counter;\r\n\r\n    struct Kitty{\r\n    uint256 genes;\r\n    uint256 birthTime;\r\n    uint256 dadID;\r\n    uint256 momID;\r\n    uint256 generation;\r\n    }\r\n    \r\n    Kitty[] public kitties;    //is this set as private by default?\r\n\r\n    mapping(address=>uint256) private _ownersTokenBalance;    //each address's token balance\r\n    mapping(uint256 =>address) private _tokenOwner; //tokenID equal to the number of tokens when kitty created maps to each owner\r\n\r\n    function createKittyGen0(uint256 _genes) public onlyOwner returns(uint256){\r\n   require(gen0Counter<gen0Limit, \"The garden of eden has closed\");\r\n   gen0Counter ++;\r\n   return _createKitty(0, 0, 0, _genes, msg.sender);\r\n    }\r\n\r\n    function _createKitty(uint256 _momID, uint256 _dadID, uint256 _generation, uint256 _genes, address _owner) internal \r\n    returns(uint256){\r\n    Kitty memory _kitty = Kitty({\r\n        genes: _genes, \r\n        birthTime: uint64(now),\r\n        momID: uint32(_momID),\r\n        dadID: uint32(_dadID),\r\n        generation: uint16(_generation)\r\n    });\r\n\r\n    kitties.push(_kitty); \r\n    uint256 newKittenId = kitties.length;\r\n    emit Birth(_owner, newKittenId, _momID, _dadID, _genes);\r\n    _transfer(address(0), _owner, newKittenId);\r\n\r\n    return newKittenId;\r\n    }\r\n\r\n    function transfer(address to, uint256 tokenId) external{\r\n        require(to != address(0), \"Don't send your token into the endless abyss\");\r\n        require(to != address(this), \"Don't send your token to this address\");\r\n        require(_tokenOwner[tokenId]==msg.sender, \"Sender does not own tokenId\");\r\n        \r\n        _transfer(msg.sender, to, tokenId);\r\n    }\r\n\r\n    function _transfer(address from, address to, uint256 tokenId) internal{\r\n        if(from==address(0)) {\r\n            _tokenOwner[tokenId]= to;\r\n            _ownersTokenBalance[to]++;\r\n        }\r\n        else{\r\n            _tokenOwner[tokenId] = to;\r\n            _ownersTokenBalance[to]++;\r\n            _ownersTokenBalance[from]--;\r\n        emit Transfer(msg.sender, to, tokenId);\r\n            }\r\n    }\r\n\r\n    function getOwnedIds(address owner) public view returns(uint256){\r\n    return _ownersTokenBalance[owner];\r\n    }\r\n\r\n    function getKitty(uint256 tokenId) public view returns(\r\n    uint256 genes, \r\n    uint256 birthTime, \r\n    uint256 dadID, \r\n    uint256 momID, \r\n    uint256 generation,\r\n    address owner){\r\n   \r\n    genes = kitties[tokenId].genes;\r\n    birthTime = kitties[tokenId].birthTime;\r\n    dadID = kitties[tokenId].dadID;\r\n    momID = kitties[tokenId].momID;\r\n    generation = kitties[tokenId].generation;\r\n    owner = _tokenOwner[tokenId];\r\n    }\r\n\r\n    function balanceOf(address owner) external view returns (uint256 balance){\r\n        balance = _ownersTokenBalance[owner];\r\n    }\r\n\r\n    function totalSupply() external view returns (uint256 total){\r\n        total = kitties.length;\r\n    }\r\n\r\n    function name() external view returns (string memory tokenName){\r\n        tokenName = _name;\r\n    }\r\n\r\n    function symbol() external view returns (string memory tokenSymbol){\r\n        tokenSymbol= _symbol;\r\n    }\r\n\r\n    function ownerOf(uint256 tokenId) external view returns (address owner){\r\n        require(kitties.length>=tokenId && tokenId!=0, \"This token does not exist\");\r\n        owner = _tokenOwner[tokenId];\r\n    }\r\n}",
  "sourcePath": "C:\\Users\\yan\\Documents\\GitHub\\CryptoKitties\\contracts\\Kittycontract.sol",
  "compiler": {
    "name": "solc",
    "version": "0.5.12+commit.7709ece9.Emscripten.clang"
  },
  "schemaVersion": "3.2.0",
  "updatedAt": "2020-11-05T17:47:03.147Z",
  "networkType": "ethereum",
  "devdoc": {
    "methods": {}
  },
  "userdoc": {
    "methods": {}
  }
}