{
  "contractName": "Kittycontract",
  "abi": [
    {
      "anonymous": false,
      "inputs": [
        {
          "indexed": true,
          "internalType": "address",
          "name": "owner",
          "type": "address"
        },
        {
          "indexed": true,
          "internalType": "address",
          "name": "approved",
          "type": "address"
        },
        {
          "indexed": true,
          "internalType": "uint256",
          "name": "tokenId",
          "type": "uint256"
        }
      ],
      "name": "Approval",
      "type": "event"
    },
    {
      "anonymous": false,
      "inputs": [
        {
          "indexed": false,
          "internalType": "address",
          "name": "owner",
          "type": "address"
        },
        {
          "indexed": false,
          "internalType": "uint256",
          "name": "kittenId",
          "type": "uint256"
        },
        {
          "indexed": false,
          "internalType": "uint256",
          "name": "momId",
          "type": "uint256"
        },
        {
          "indexed": false,
          "internalType": "uint256",
          "name": "dadId",
          "type": "uint256"
        },
        {
          "indexed": false,
          "internalType": "uint256",
          "name": "genes",
          "type": "uint256"
        }
      ],
      "name": "Birth",
      "type": "event"
    },
    {
      "anonymous": false,
      "inputs": [
        {
          "indexed": true,
          "internalType": "address",
          "name": "from",
          "type": "address"
        },
        {
          "indexed": true,
          "internalType": "address",
          "name": "to",
          "type": "address"
        },
        {
          "indexed": true,
          "internalType": "uint256",
          "name": "tokenId",
          "type": "uint256"
        }
      ],
      "name": "Transfer",
      "type": "event"
    },
    {
      "constant": true,
      "inputs": [],
      "name": "gen0Counter",
      "outputs": [
        {
          "internalType": "uint16",
          "name": "",
          "type": "uint16"
        }
      ],
      "payable": false,
      "stateMutability": "view",
      "type": "function"
    },
    {
      "constant": true,
      "inputs": [],
      "name": "owner",
      "outputs": [
        {
          "internalType": "address",
          "name": "",
          "type": "address"
        }
      ],
      "payable": false,
      "stateMutability": "view",
      "type": "function"
    },
    {
      "constant": false,
      "inputs": [
        {
          "internalType": "uint256",
          "name": "_genes",
          "type": "uint256"
        }
      ],
      "name": "createKittyGen0",
      "outputs": [
        {
          "internalType": "uint256",
          "name": "",
          "type": "uint256"
        }
      ],
      "payable": false,
      "stateMutability": "nonpayable",
      "type": "function"
    },
    {
      "constant": false,
      "inputs": [
        {
          "internalType": "uint256",
          "name": "_momID",
          "type": "uint256"
        },
        {
          "internalType": "uint256",
          "name": "_dadID",
          "type": "uint256"
        },
        {
          "internalType": "uint256",
          "name": "_generation",
          "type": "uint256"
        },
        {
          "internalType": "uint256",
          "name": "_genes",
          "type": "uint256"
        },
        {
          "internalType": "address",
          "name": "_owner",
          "type": "address"
        }
      ],
      "name": "_createKitty",
      "outputs": [
        {
          "internalType": "uint256",
          "name": "",
          "type": "uint256"
        }
      ],
      "payable": false,
      "stateMutability": "nonpayable",
      "type": "function"
    },
    {
      "constant": true,
      "inputs": [
        {
          "internalType": "address",
          "name": "owner",
          "type": "address"
        }
      ],
      "name": "balanceOf",
      "outputs": [
        {
          "internalType": "uint256",
          "name": "balance",
          "type": "uint256"
        }
      ],
      "payable": false,
      "stateMutability": "view",
      "type": "function"
    },
    {
      "constant": true,
      "inputs": [],
      "name": "totalSupply",
      "outputs": [
        {
          "internalType": "uint256",
          "name": "total",
          "type": "uint256"
        }
      ],
      "payable": false,
      "stateMutability": "view",
      "type": "function"
    },
    {
      "constant": true,
      "inputs": [],
      "name": "name",
      "outputs": [
        {
          "internalType": "string",
          "name": "tokenName",
          "type": "string"
        }
      ],
      "payable": false,
      "stateMutability": "view",
      "type": "function"
    },
    {
      "constant": true,
      "inputs": [],
      "name": "symbol",
      "outputs": [
        {
          "internalType": "string",
          "name": "tokenSymbol",
          "type": "string"
        }
      ],
      "payable": false,
      "stateMutability": "view",
      "type": "function"
    },
    {
      "constant": true,
      "inputs": [
        {
          "internalType": "uint256",
          "name": "tokenId",
          "type": "uint256"
        }
      ],
      "name": "ownerOf",
      "outputs": [
        {
          "internalType": "address",
          "name": "owner",
          "type": "address"
        }
      ],
      "payable": false,
      "stateMutability": "view",
      "type": "function"
    },
    {
      "constant": true,
      "inputs": [
        {
          "internalType": "uint256[]",
          "name": "array",
          "type": "uint256[]"
        },
        {
          "internalType": "uint256",
          "name": "value",
          "type": "uint256"
        }
      ],
      "name": "arrayContains",
      "outputs": [
        {
          "internalType": "bool",
          "name": "",
          "type": "bool"
        }
      ],
      "payable": false,
      "stateMutability": "pure",
      "type": "function"
    },
    {
      "constant": true,
      "inputs": [
        {
          "internalType": "uint256[]",
          "name": "array",
          "type": "uint256[]"
        },
        {
          "internalType": "uint256",
          "name": "value",
          "type": "uint256"
        }
      ],
      "name": "valueArrayIndex",
      "outputs": [
        {
          "internalType": "uint256",
          "name": "",
          "type": "uint256"
        }
      ],
      "payable": false,
      "stateMutability": "pure",
      "type": "function"
    },
    {
      "constant": false,
      "inputs": [
        {
          "internalType": "address",
          "name": "to",
          "type": "address"
        },
        {
          "internalType": "uint256",
          "name": "tokenId",
          "type": "uint256"
        }
      ],
      "name": "transfer",
      "outputs": [],
      "payable": false,
      "stateMutability": "nonpayable",
      "type": "function"
    }
  ],
  "bytecode": "0x6080604052336000806101000a81548173ffffffffffffffffffffffffffffffffffffffff021916908373ffffffffffffffffffffffffffffffffffffffff16021790555061115e806100536000396000f3fe608060405234801561001057600080fd5b50600436106100b45760003560e01c806370a082311161007157806370a08231146103f85780638da5cb5b1461045057806395d89b411461049a578063a9059cbb1461051d578063d5a776ca1461056b578063ef5e94aa146105ad576100b4565b806306fdde03146100b95780630957feff1461013c57806317b2c40d1461021257806318160ddd146102ec578063338a63a41461030a5780636352211e1461038a575b600080fd5b6100c16105d3565b6040518080602001828103825283818151815260200191508051906020019080838360005b838110156101015780820151818401526020810190506100e6565b50505050905090810190601f16801561012e5780820380516001836020036101000a031916815260200191505b509250505060405180910390f35b6101fc6004803603604081101561015257600080fd5b810190808035906020019064010000000081111561016f57600080fd5b82018360208201111561018157600080fd5b803590602001918460208302840111640100000000831117156101a357600080fd5b919080806020026020016040519081016040528093929190818152602001838360200280828437600081840152601f19601f82011690508083019250505050505050919291929080359060200190929190505050610610565b6040518082815260200191505060405180910390f35b6102d26004803603604081101561022857600080fd5b810190808035906020019064010000000081111561024557600080fd5b82018360208201111561025757600080fd5b8035906020019184602083028401116401000000008311171561027957600080fd5b919080806020026020016040519081016040528093929190818152602001838360200280828437600081840152601f19601f82011690508083019250505050505050919291929080359060200190929190505050610671565b604051808215151515815260200191505060405180910390f35b6102f46106d6565b6040518082815260200191505060405180910390f35b610374600480360360a081101561032057600080fd5b8101908080359060200190929190803590602001909291908035906020019092919080359060200190929190803573ffffffffffffffffffffffffffffffffffffffff1690602001909291905050506106e3565b6040518082815260200191505060405180910390f35b6103b6600480360360208110156103a057600080fd5b81019080803590602001909291905050506108ad565b604051808273ffffffffffffffffffffffffffffffffffffffff1673ffffffffffffffffffffffffffffffffffffffff16815260200191505060405180910390f35b61043a6004803603602081101561040e57600080fd5b81019080803573ffffffffffffffffffffffffffffffffffffffff169060200190929190505050610967565b6040518082815260200191505060405180910390f35b6104586109b6565b604051808273ffffffffffffffffffffffffffffffffffffffff1673ffffffffffffffffffffffffffffffffffffffff16815260200191505060405180910390f35b6104a26109db565b6040518080602001828103825283818151815260200191508051906020019080838360005b838110156104e25780820151818401526020810190506104c7565b50505050905090810190601f16801561050f5780820380516001836020036101000a031916815260200191505b509250505060405180910390f35b6105696004803603604081101561053357600080fd5b81019080803573ffffffffffffffffffffffffffffffffffffffff16906020019092919080359060200190929190505050610a18565b005b6105976004803603602081101561058157600080fd5b8101908080359060200190929190505050610c42565b6040518082815260200191505060405180910390f35b6105b5610d76565b604051808261ffff1661ffff16815260200191505060405180910390f35b60606040518060400160405280600a81526020017f4b6974747920436f696e00000000000000000000000000000000000000000000815250905090565b6000600115156106208484610671565b15151461062957fe5b60008090505b8351811015610669578284828151811061064557fe5b6020026020010151141561065c578091505061066b565b808060010191505061062f565b505b92915050565b600080600090505b83518110156106bb578284828151811061068f57fe5b602002602001015114156106ae576001845101905060019150506106d0565b8080600101915050610679565b83518114156106ce5760009150506106d0565b505b92915050565b6000600180549050905090565b60006106ed61108f565b6040518060a001604052808581526020014267ffffffffffffffff1681526020018763ffffffff1681526020018863ffffffff1681526020018661ffff168152509050600060018083908060018154018082558091505090600182039060005260206000209060020201600090919290919091506000820151816000015560208201518160010160006101000a81548167ffffffffffffffff021916908367ffffffffffffffff16021790555060408201518160010160086101000a81548163ffffffff021916908363ffffffff160217905550606082015181600101600c6101000a81548163ffffffff021916908363ffffffff16021790555060808201518160010160106101000a81548161ffff021916908361ffff16021790555050500390507f0a5311bd2a6608f08a180df2ee7c5946819a649b204b554bb8e39825b2c50ad584828a8a89604051808673ffffffffffffffffffffffffffffffffffffffff1673ffffffffffffffffffffffffffffffffffffffff1681526020018581526020018481526020018381526020018281526020019550505050505060405180910390a161089f60008583610d8a565b809250505095945050505050565b60006001805490508210610929576040517f08c379a00000000000000000000000000000000000000000000000000000000081526004018080602001828103825260198152602001807f5468697320746f6b656e20646f6573206e6f742065786973740000000000000081525060200191505060405180910390fd5b6003600083815260200190815260200160002060009054906101000a900473ffffffffffffffffffffffffffffffffffffffff169050809050919050565b6000600260008373ffffffffffffffffffffffffffffffffffffffff1673ffffffffffffffffffffffffffffffffffffffff168152602001908152602001600020805490509050809050919050565b6000809054906101000a900473ffffffffffffffffffffffffffffffffffffffff1681565b60606040518060400160405280600381526020017f4b54430000000000000000000000000000000000000000000000000000000000815250905090565b600073ffffffffffffffffffffffffffffffffffffffff168273ffffffffffffffffffffffffffffffffffffffff161415610a9e576040517f08c379a000000000000000000000000000000000000000000000000000000000815260040180806020018281038252602c8152602001806110d9602c913960400191505060405180910390fd5b3073ffffffffffffffffffffffffffffffffffffffff168273ffffffffffffffffffffffffffffffffffffffff161415610b23576040517f08c379a00000000000000000000000000000000000000000000000000000000081526004018080602001828103825260258152602001806111056025913960400191505060405180910390fd5b60011515610bbe600260003373ffffffffffffffffffffffffffffffffffffffff1673ffffffffffffffffffffffffffffffffffffffff168152602001908152602001600020805480602002602001604051908101604052809291908181526020018280548015610bb357602002820191906000526020600020905b815481526020019060010190808311610b9f575b505050505083610671565b151514610c33576040517f08c379a000000000000000000000000000000000000000000000000000000000815260040180806020018281038252601b8152602001807f53656e64657220646f6573206e6f74206f776e20746f6b656e4964000000000081525060200191505060405180910390fd5b610c3e338383610d8a565b5050565b60008060009054906101000a900473ffffffffffffffffffffffffffffffffffffffff1673ffffffffffffffffffffffffffffffffffffffff163373ffffffffffffffffffffffffffffffffffffffff1614610c9d57600080fd5b600a61ffff16600460009054906101000a900461ffff1661ffff1610610d2b576040517f08c379a000000000000000000000000000000000000000000000000000000000815260040180806020018281038252601d8152602001807f5468652067617264656e206f66206564656e2068617320636c6f73656400000081525060200191505060405180910390fd5b6004600081819054906101000a900461ffff168092919060010191906101000a81548161ffff021916908361ffff16021790555050610d6f600080600085336106e3565b9050919050565b600460009054906101000a900461ffff1681565b600073ffffffffffffffffffffffffffffffffffffffff168373ffffffffffffffffffffffffffffffffffffffff161415610e7f57600260008373ffffffffffffffffffffffffffffffffffffffff1673ffffffffffffffffffffffffffffffffffffffff168152602001908152602001600020819080600181540180825580915050906001820390600052602060002001600090919290919091505550816003600083815260200190815260200160002060006101000a81548173ffffffffffffffffffffffffffffffffffffffff021916908373ffffffffffffffffffffffffffffffffffffffff16021790555061108a565b6000610f18600260008673ffffffffffffffffffffffffffffffffffffffff1673ffffffffffffffffffffffffffffffffffffffff168152602001908152602001600020805480602002602001604051908101604052809291908181526020018280548015610f0d57602002820191906000526020600020905b815481526020019060010190808311610ef9575b505050505083610610565b9050600260008573ffffffffffffffffffffffffffffffffffffffff1673ffffffffffffffffffffffffffffffffffffffff1681526020019081526020016000208181548110610f6457fe5b9060005260206000200160009055600260008473ffffffffffffffffffffffffffffffffffffffff1673ffffffffffffffffffffffffffffffffffffffff168152602001908152602001600020829080600181540180825580915050906001820390600052602060002001600090919290919091505550826003600084815260200190815260200160002060006101000a81548173ffffffffffffffffffffffffffffffffffffffff021916908373ffffffffffffffffffffffffffffffffffffffff160217905550818373ffffffffffffffffffffffffffffffffffffffff163373ffffffffffffffffffffffffffffffffffffffff167fddf252ad1be2c89b69c2b068fc378daa952ba7f163c4a11628f55a4df523b3ef60405160405180910390a4505b505050565b6040518060a0016040528060008152602001600067ffffffffffffffff168152602001600063ffffffff168152602001600063ffffffff168152602001600061ffff168152509056fe446f6e27742073656e6420796f757220746f6b656e20696e746f2074686520656e646c657373206162797373446f6e27742073656e6420796f757220746f6b656e20746f20746869732061646472657373a265627a7a72315820390300106c205b68423e802cd916ab16893b0b7425ff992900a794ea5fde4c3364736f6c634300050c0032",
  "source": "pragma solidity ^0.5.12;\r\nimport \"./IERC721.sol\";\r\nimport \"./Ownable.sol\";\r\n\r\ncontract Kittycontract is IERC721, Ownable{\r\n\r\n\r\nevent Transfer(address indexed from, address indexed to, uint256 indexed tokenId);\r\nevent Birth(address owner, uint256 kittenId, uint256 momId, uint256 dadId, uint256 genes);\r\n\r\n//is there benefit of 256 instead of a smaller 16?\r\nuint16 private constant gen0Limit = 10;\r\nstring private constant _name= \"Kitty Coin\";\r\nstring private constant _symbol = \"KTC\";\r\n\r\nstruct Kitty{\r\n    uint256 genes;\r\n    uint64 birthTime;\r\n    uint32 dadID;\r\n    uint32 momID;\r\n    uint16 generation;\r\n}\r\n\r\nKitty[] kitties;\r\n\r\nmapping(address=>uint256[]) private _owners;    //is this a wallet that wouldn't be in this contract?\r\nmapping(uint256 =>address) private _tokenOwner; //is this unnecessary?\r\n\r\n\r\nuint16 public gen0Counter;\r\n\r\nfunction createKittyGen0(uint256 _genes) public onlyOwner returns(uint256){\r\n   require(gen0Counter<gen0Limit, \"The garden of eden has closed\");\r\n   gen0Counter ++;\r\n   \r\n   return _createKitty(0, 0, 0, _genes, msg.sender);\r\n}\r\n\r\nfunction _createKitty(uint256 _momID, uint256 _dadID, uint256 _generation, uint256 _genes, address _owner) public returns(uint256){\r\n    Kitty memory _kitty = Kitty({\r\n        genes: _genes, \r\n        birthTime: uint64(now),\r\n        momID: uint32(_momID),\r\n        dadID: uint32(_dadID),\r\n        generation: uint16(_generation)\r\n    });\r\n\r\n    uint256 newKittenId = kitties.push(_kitty)-1; //returns length of new array\r\n    emit Birth(_owner, newKittenId, _momID, _dadID, _genes);\r\n    \r\n    _transfer(address(0), _owner, newKittenId);\r\n    \r\n    return newKittenId;\r\n}\r\n\r\n//do I need to indicate a \"return\" if I specify the variable name in the \"returns(uint256 balance)\" parameter?\r\n//also, do I need to delcare \"uint256 balance\" again or is that optional?\r\n    function balanceOf(address owner) external view returns (uint256 balance){\r\n        balance = _owners[owner].length;\r\n        return balance;\r\n    }\r\n\r\n    function totalSupply() external view returns (uint256 total){\r\n        return kitties.length;\r\n    }\r\n\r\n    function name() external view returns (string memory tokenName){\r\n        return _name;\r\n    }\r\n\r\n    function symbol() external view returns (string memory tokenSymbol){\r\n        return _symbol;\r\n    }\r\n\r\n    function ownerOf(uint256 tokenId) external view returns (address owner){\r\n        require(tokenId < kitties.length, \"This token does not exist\");\r\n        owner = _tokenOwner[tokenId];\r\n        return owner;\r\n    }\r\n\r\n\r\n    function arrayContains(uint256[] memory array, uint256 value) public pure returns(bool){\r\n        uint i = 0;\r\n        while(i< array.length){\r\n            if(array[i]==value){\r\n                i=(array.length +1);\r\n                return true;\r\n            }\r\n            else{i++;}\r\n        }\r\n        if(i==array.length)return false;\r\n    }\r\n\r\n    function valueArrayIndex(uint256[] memory array, uint256 value) public pure returns(uint256){\r\n        //is this an assert or require?  Or better for a boolean return?\r\n        assert(arrayContains(array, value)==true);\r\n        for(uint i = 0; i<array.length; i++){\r\n            if(array[i]==value) return i;\r\n        }\r\n    }\r\n\r\n    function transfer(address to, uint256 tokenId) external{\r\n        require(to != address(0), \"Don't send your token into the endless abyss\");\r\n        require(to != address(this), \"Don't send your token to this address\");\r\n        require(arrayContains(_owners[msg.sender], tokenId)==true, \"Sender does not own tokenId\");\r\n        \r\n        _transfer(msg.sender, to, tokenId);\r\n    }\r\n    //can we overload with a different access modifier?\r\n    function _transfer(address from, address to, uint256 tokenId) internal{\r\n        if(from==address(0)) {\r\n            _owners[to].push(tokenId);\r\n            _tokenOwner[tokenId]=to;\r\n        }\r\n        else{\r\n        uint256 index = valueArrayIndex(_owners[from], tokenId);\r\n        //does the delete actually remove or just replace with zeros?\r\n        delete _owners[from][index];\r\n        _owners[to].push(tokenId);\r\n        _tokenOwner[tokenId] = to;\r\n        emit Transfer(msg.sender, to, tokenId);\r\n            }\r\n    }\r\n}",
  "sourcePath": "C:\\Users\\yan\\Documents\\GitHub\\CryptoKitties\\contracts\\Kittycontract.sol",
  "compiler": {
    "name": "solc",
    "version": "0.5.12+commit.7709ece9.Emscripten.clang"
  },
  "schemaVersion": "3.2.0",
  "updatedAt": "2020-10-28T17:33:06.832Z",
  "networkType": "ethereum",
  "devdoc": {
    "methods": {}
  },
  "userdoc": {
    "methods": {}
  }
}