{
  "contractName": "KittyMarketplace",
  "abi": [
    {
      "inputs": [
        {
          "internalType": "address",
          "name": "_kittyContractAddress",
          "type": "address"
        }
      ],
      "payable": false,
      "stateMutability": "nonpayable",
      "type": "constructor"
    },
    {
      "anonymous": false,
      "inputs": [
        {
          "indexed": false,
          "internalType": "string",
          "name": "TxType",
          "type": "string"
        },
        {
          "indexed": false,
          "internalType": "address",
          "name": "owner",
          "type": "address"
        },
        {
          "indexed": false,
          "internalType": "uint256",
          "name": "tokenId",
          "type": "uint256"
        }
      ],
      "name": "MarketTransaction",
      "type": "event"
    },
    {
      "constant": true,
      "inputs": [],
      "name": "owner",
      "outputs": [
        {
          "internalType": "address",
          "name": "",
          "type": "address"
        }
      ],
      "payable": false,
      "stateMutability": "view",
      "type": "function"
    },
    {
      "constant": true,
      "inputs": [
        {
          "internalType": "uint256",
          "name": "_tokenId",
          "type": "uint256"
        }
      ],
      "name": "getOffer",
      "outputs": [
        {
          "internalType": "address",
          "name": "seller",
          "type": "address"
        },
        {
          "internalType": "uint256",
          "name": "price",
          "type": "uint256"
        },
        {
          "internalType": "uint256",
          "name": "index",
          "type": "uint256"
        },
        {
          "internalType": "uint256",
          "name": "tokenId",
          "type": "uint256"
        },
        {
          "internalType": "bool",
          "name": "active",
          "type": "bool"
        }
      ],
      "payable": false,
      "stateMutability": "view",
      "type": "function"
    },
    {
      "constant": true,
      "inputs": [],
      "name": "getAllTokenOnSale",
      "outputs": [
        {
          "internalType": "uint256[]",
          "name": "listOfOffers",
          "type": "uint256[]"
        }
      ],
      "payable": false,
      "stateMutability": "view",
      "type": "function"
    },
    {
      "constant": false,
      "inputs": [
        {
          "internalType": "uint256",
          "name": "_price",
          "type": "uint256"
        },
        {
          "internalType": "uint256",
          "name": "_tokenId",
          "type": "uint256"
        }
      ],
      "name": "setOffer",
      "outputs": [],
      "payable": false,
      "stateMutability": "nonpayable",
      "type": "function"
    },
    {
      "constant": false,
      "inputs": [
        {
          "internalType": "uint256",
          "name": "_tokenId",
          "type": "uint256"
        }
      ],
      "name": "removeOffer",
      "outputs": [],
      "payable": false,
      "stateMutability": "nonpayable",
      "type": "function"
    },
    {
      "constant": false,
      "inputs": [
        {
          "internalType": "uint256",
          "name": "_tokenId",
          "type": "uint256"
        }
      ],
      "name": "buyKitty",
      "outputs": [],
      "payable": true,
      "stateMutability": "payable",
      "type": "function"
    }
  ],
  "bytecode": "0x608060405234801561001057600080fd5b506040516112a43803806112a48339818101604052602081101561003357600080fd5b8101908080519060200190929190505050336000806101000a81548173ffffffffffffffffffffffffffffffffffffffff021916908373ffffffffffffffffffffffffffffffffffffffff1602179055506100938161009960201b60201c565b50610136565b6000809054906101000a900473ffffffffffffffffffffffffffffffffffffffff1673ffffffffffffffffffffffffffffffffffffffff163373ffffffffffffffffffffffffffffffffffffffff16146100f257600080fd5b80600160006101000a81548173ffffffffffffffffffffffffffffffffffffffff021916908373ffffffffffffffffffffffffffffffffffffffff16021790555050565b61115f806101456000396000f3fe6080604052600436106100555760003560e01c80634579268a1461005a57806349b3709f146100f55780638da5cb5b14610161578063941b055b146101b857806395a0f9c7146101fd578063ae5310f614610238575b600080fd5b34801561006657600080fd5b506100936004803603602081101561007d57600080fd5b8101908080359060200190929190505050610266565b604051808673ffffffffffffffffffffffffffffffffffffffff1673ffffffffffffffffffffffffffffffffffffffff168152602001858152602001848152602001838152602001821515151581526020019550505050505060405180910390f35b34801561010157600080fd5b5061010a61037f565b6040518080602001828103825283818151815260200191508051906020019060200280838360005b8381101561014d578082015181840152602081019050610132565b505050509050019250505060405180910390f35b34801561016d57600080fd5b5061017661049c565b604051808273ffffffffffffffffffffffffffffffffffffffff1673ffffffffffffffffffffffffffffffffffffffff16815260200191505060405180910390f35b3480156101c457600080fd5b506101fb600480360360408110156101db57600080fd5b8101908080359060200190929190803590602001909291905050506104c1565b005b34801561020957600080fd5b506102366004803603602081101561022057600080fd5b8101908080359060200190929190505050610a28565b005b6102646004803603602081101561024e57600080fd5b8101908080359060200190929190505050610c5c565b005b6000806000806000600115156003600088815260200190815260200160002060040160009054906101000a900460ff1615151461030b576040517f08c379a00000000000000000000000000000000000000000000000000000000081526004018080602001828103825260148152602001807f4e6f206f6e65206d61646520616e206f6666657200000000000000000000000081525060200191505060405180910390fd5b60006003600088815260200190815260200160002090508060000160009054906101000a900473ffffffffffffffffffffffffffffffffffffffff168160010154826002015483600301548460040160009054906101000a900460ff16849450955095509550955095505091939590929450565b60606000600280549050905060008114156103d357606060006040519080825280602002602001820160405280156103c65781602001602082028038833980820191505090505b5090508092505050610499565b6060816040519080825280602002602001820160405280156104045781602001602082028038833980820191505090505b50905060008090505b8281101561049257600115156002828154811061042657fe5b906000526020600020906005020160040160009054906101000a900460ff1615151415610485576002818154811061045a57fe5b90600052602060002090600502016003015482828151811061047857fe5b6020026020010181815250505b808060010191505061040d565b5080925050505b90565b6000809054906101000a900473ffffffffffffffffffffffffffffffffffffffff1681565b600160009054906101000a900473ffffffffffffffffffffffffffffffffffffffff1673ffffffffffffffffffffffffffffffffffffffff16636352211e826040518263ffffffff1660e01b81526004018082815260200191505060206040518083038186803b15801561053457600080fd5b505afa158015610548573d6000803e3d6000fd5b505050506040513d602081101561055e57600080fd5b810190808051906020019092919050505073ffffffffffffffffffffffffffffffffffffffff163373ffffffffffffffffffffffffffffffffffffffff161461060f576040517f08c379a00000000000000000000000000000000000000000000000000000000081526004018080602001828103825260168152602001807f54686174207468696e672061696e277420796f7572730000000000000000000081525060200191505060405180910390fd5b600115156003600083815260200190815260200160002060040160009054906101000a900460ff16151514156106ad576040517f08c379a000000000000000000000000000000000000000000000000000000000815260040180806020018281038252601e8152602001807f54686174207468696e6720697320616c7265616479206f6e206f66666572000081525060200191505060405180910390fd5b3073ffffffffffffffffffffffffffffffffffffffff16600160009054906101000a900473ffffffffffffffffffffffffffffffffffffffff1673ffffffffffffffffffffffffffffffffffffffff1663081812fc836040518263ffffffff1660e01b81526004018082815260200191505060206040518083038186803b15801561073757600080fd5b505afa15801561074b573d6000803e3d6000fd5b505050506040513d602081101561076157600080fd5b810190808051906020019092919050505073ffffffffffffffffffffffffffffffffffffffff16146107de576040517f08c379a00000000000000000000000000000000000000000000000000000000081526004018080602001828103825260378152602001806110f46037913960400191505060405180910390fd5b6107e66110ac565b6040518060a001604052803373ffffffffffffffffffffffffffffffffffffffff1681526020018481526020016002805490508152602001838152602001600115158152509050806003600084815260200190815260200160002060008201518160000160006101000a81548173ffffffffffffffffffffffffffffffffffffffff021916908373ffffffffffffffffffffffffffffffffffffffff16021790555060208201518160010155604082015181600201556060820151816003015560808201518160040160006101000a81548160ff0219169083151502179055509050506002819080600181540180825580915050906001820390600052602060002090600502016000909192909190915060008201518160000160006101000a81548173ffffffffffffffffffffffffffffffffffffffff021916908373ffffffffffffffffffffffffffffffffffffffff16021790555060208201518160010155604082015181600201556060820151816003015560808201518160040160006101000a81548160ff0219169083151502179055505050507fd99e4fad9ad6313b1feb588fa8e605e3a9873172f2024330c35dd2b4041a4386338360405180806020018473ffffffffffffffffffffffffffffffffffffffff1673ffffffffffffffffffffffffffffffffffffffff1681526020018381526020018281038252600c8152602001807f437265617465206f666665720000000000000000000000000000000000000000815250602001935050505060405180910390a1505050565b3373ffffffffffffffffffffffffffffffffffffffff166003600083815260200190815260200160002060000160009054906101000a900473ffffffffffffffffffffffffffffffffffffffff1673ffffffffffffffffffffffffffffffffffffffff1614610aff576040517f08c379a00000000000000000000000000000000000000000000000000000000081526004018080602001828103825260168152602001807f54686973207468696e672061696e277420796f7572730000000000000000000081525060200191505060405180910390fd5b60036000828152602001908152602001600020600080820160006101000a81549073ffffffffffffffffffffffffffffffffffffffff02191690556001820160009055600282016000905560038201600090556004820160006101000a81549060ff0219169055505060006002600360008481526020019081526020016000206002015481548110610b8d57fe5b906000526020600020906005020160040160006101000a81548160ff0219169083151502179055507fd99e4fad9ad6313b1feb588fa8e605e3a9873172f2024330c35dd2b4041a4386338260405180806020018473ffffffffffffffffffffffffffffffffffffffff1673ffffffffffffffffffffffffffffffffffffffff1681526020018381526020018281038252600c8152602001807f52656d6f7665206f666665720000000000000000000000000000000000000000815250602001935050505060405180910390a150565b610c646110ac565b600360008381526020019081526020016000206040518060a00160405290816000820160009054906101000a900473ffffffffffffffffffffffffffffffffffffffff1673ffffffffffffffffffffffffffffffffffffffff1673ffffffffffffffffffffffffffffffffffffffff1681526020016001820154815260200160028201548152602001600382015481526020016004820160009054906101000a900460ff161515151581525050905080602001513414610d8c576040517f08c379a000000000000000000000000000000000000000000000000000000000815260040180806020018281038252601b8152602001807f506179207468652066756c6c20616d6f756e742c20706c65617365000000000081525060200191505060405180910390fd5b600115158160800151151514610e0a576040517f08c379a000000000000000000000000000000000000000000000000000000000815260040180806020018281038252601e8152602001807f54686174206b697474792069736e2774206f6e20746865206d61726b6574000081525060200191505060405180910390fd5b60036000838152602001908152602001600020600080820160006101000a81549073ffffffffffffffffffffffffffffffffffffffff02191690556001820160009055600282016000905560038201600090556004820160006101000a81549060ff0219169055505060006002826040015181548110610e8657fe5b906000526020600020906005020160040160006101000a81548160ff021916908315150217905550600081602001511115610f0b57806000015173ffffffffffffffffffffffffffffffffffffffff166108fc82602001519081150290604051600060405180830381858888f19350505050158015610f09573d6000803e3d6000fd5b505b600160009054906101000a900473ffffffffffffffffffffffffffffffffffffffff1673ffffffffffffffffffffffffffffffffffffffff166323b872dd826000015133856040518463ffffffff1660e01b8152600401808473ffffffffffffffffffffffffffffffffffffffff1673ffffffffffffffffffffffffffffffffffffffff1681526020018373ffffffffffffffffffffffffffffffffffffffff1673ffffffffffffffffffffffffffffffffffffffff1681526020018281526020019350505050600060405180830381600087803b158015610fec57600080fd5b505af1158015611000573d6000803e3d6000fd5b505050507fd99e4fad9ad6313b1feb588fa8e605e3a9873172f2024330c35dd2b4041a4386338360405180806020018473ffffffffffffffffffffffffffffffffffffffff1673ffffffffffffffffffffffffffffffffffffffff168152602001838152602001828103825260038152602001807f4275790000000000000000000000000000000000000000000000000000000000815250602001935050505060405180910390a15050565b6040518060a00160405280600073ffffffffffffffffffffffffffffffffffffffff168152602001600081526020016000815260200160008152602001600015158152509056fe5468697320636f6e747261637420646f65736e27742068617665207065726d697373696f6e20746f206d6f7665207468617420636f696ea265627a7a72315820714e988dc220b72cedcb4276885f3f084a518f172d85496db513df008ccdb30764736f6c634300050c0032",
  "source": "pragma solidity ^0.5.12;\r\n\r\nimport \"./Kittycontract.sol\";\r\nimport \"./Ownable.sol\";\r\nimport \"./IKittyMarketplace.sol\";\r\n\r\ncontract KittyMarketplace is Ownable{\r\n    \r\n    event MarketTransaction(string TxType, address owner, uint256 tokenId);\r\n\r\n    Kittycontract private _kittyContract;\r\n\r\n    struct Offer{\r\n        address payable seller;\r\n        uint price;\r\n        uint index;\r\n        uint tokenId;\r\n        bool active;\r\n    }\r\n\r\n    Offer[] offers;\r\n\r\n    mapping(uint => Offer) tokenIdToOffer;\r\n    constructor (address _kittyContractAddress) public {\r\n        setKittyContract(_kittyContractAddress);\r\n    }\r\n    \r\n    //why does the visibility of the inerface keep getting switched in our implementation?  Does it matter?\r\n    //shouldn't this be internal if it is called by the constructor?\r\n    function setKittyContract(address _kittyContractAddress) internal onlyOwner{\r\n        _kittyContract = Kittycontract(_kittyContractAddress);\r\n    }\r\n\r\n    //shouldn't we throw an error with a require here?\r\n    function getOffer(uint _tokenId) public view returns(address seller, uint price, uint index, uint tokenId, bool active){\r\n        require(tokenIdToOffer[_tokenId].active==true, \"No one made an offer\");\r\n        Offer storage theOffer = tokenIdToOffer[_tokenId];\r\n        return(theOffer.seller, theOffer.price, theOffer.index,theOffer.tokenId, theOffer.active);\r\n    }\r\n\r\n        //another visibility change from interface- whats the point of having an interface exactly if you can just change it?\r\n    function getAllTokenOnSale() public view  returns(uint256[] memory listOfOffers){\r\n        uint totalOffers = offers.length;\r\n\r\n        if(totalOffers==0){\r\n            uint256[] memory listOfOffers = new uint256[](0);\r\n            return listOfOffers;\r\n        }\r\n        else{\r\n            //why can't we make this a dynamic array?\r\n            uint[] memory listOfOffers = new uint[](totalOffers);\r\n            for(uint i =0; i<totalOffers; i++){\r\n                //what is the logic behind why we can't use push on certain kinds of arrays?\r\n                if(offers[i].active==true){\r\n                    listOfOffers[i]=(offers[i].tokenId);\r\n                }\r\n            }\r\n            //don't we have to return listOfOffers and not result since we declared the return name above?\r\n                return listOfOffers\r\n                \r\n                ;\r\n            }\r\n        }\r\n    \r\n    function setOffer(uint256 _price, uint256 _tokenId) external {\r\n        require(msg.sender == _kittyContract.ownerOf(_tokenId), \"That thing ain't yours\");\r\n        //isn't this better than ==false, since it could also equal to 0 when not yet set\r\n        require(tokenIdToOffer[_tokenId].active!=true, \"That thing is already on offer\");\r\n        //why does he call is approvedforall? Don't we just need to check for that one _tokenId?\r\n        require(_kittyContract.getApproved(_tokenId)==address(this), \"This contract doesn't have permission to move that coin\");\r\n        \r\n        //why do we make an explicit index here but not in our kitty contract?  Should we have added the index to the kitty struct?\r\n        Offer memory newOffer = Offer({\r\n            seller: msg.sender,\r\n            price: _price, \r\n            index: offers.length,\r\n            tokenId: _tokenId,\r\n            active: true\r\n        });\r\n        \r\n        tokenIdToOffer[_tokenId] = newOffer;\r\n        offers.push(newOffer);\r\n        emit MarketTransaction(\"Create offer\", msg.sender, _tokenId);\r\n    }\r\n    \r\nfunction removeOffer(uint256 _tokenId) public{\r\n        require(tokenIdToOffer[_tokenId].seller==msg.sender, \"This thing ain't yours\");\r\n        delete tokenIdToOffer[_tokenId];\r\n        offers[tokenIdToOffer[_tokenId].index].active=false;\r\n        emit MarketTransaction(\"Remove offer\", msg.sender, _tokenId);\r\n    }\r\n\r\n    function buyKitty(uint256 _tokenId) external payable{\r\n        Offer memory offerMade = tokenIdToOffer[_tokenId];\r\n        require(msg.value==offerMade.price, \"Pay the full amount, please\");\r\n        //why do we initialize and create an Offer struct if we just call the attributes with tokenIdToOffer[_tokenId]?  \r\n        require(offerMade.active==true, \"That kitty isn't on the market\");\r\n\r\n        delete tokenIdToOffer[_tokenId];\r\n        offers[offerMade.index].active=false;\r\n\r\n        //why do we have to check whether the price is positive? \r\n        //I don't think I understand this section.  Is this calling the transfer function from kitty contract?  \r\n        if(offerMade.price>0){\r\n            offerMade.seller.transfer(offerMade.price);\r\n        }\r\n\r\n        _kittyContract.transferFrom(offerMade.seller, msg.sender, _tokenId);\r\n\r\n        emit MarketTransaction(\"Buy\", msg.sender, _tokenId);\r\n    }\r\n}",
  "sourcePath": "C:\\Users\\yan\\Documents\\GitHub\\CryptoKitties\\contracts\\KittyMarketplace.sol",
  "compiler": {
    "name": "solc",
    "version": "0.5.12+commit.7709ece9.Emscripten.clang"
  },
  "schemaVersion": "3.2.0",
  "updatedAt": "2020-11-20T00:12:30.479Z",
  "networkType": "ethereum",
  "devdoc": {
    "methods": {}
  },
  "userdoc": {
    "methods": {}
  }
}