{
  "contractName": "Kittycontract",
  "abi": [
    {
      "anonymous": false,
      "inputs": [
        {
          "indexed": true,
          "internalType": "address",
          "name": "owner",
          "type": "address"
        },
        {
          "indexed": true,
          "internalType": "address",
          "name": "approved",
          "type": "address"
        },
        {
          "indexed": true,
          "internalType": "uint256",
          "name": "tokenId",
          "type": "uint256"
        }
      ],
      "name": "Approval",
      "type": "event"
    },
    {
      "anonymous": false,
      "inputs": [
        {
          "indexed": true,
          "internalType": "address",
          "name": "owner",
          "type": "address"
        },
        {
          "indexed": true,
          "internalType": "address",
          "name": "operator",
          "type": "address"
        },
        {
          "indexed": false,
          "internalType": "bool",
          "name": "approved",
          "type": "bool"
        }
      ],
      "name": "ApprovalForAll",
      "type": "event"
    },
    {
      "anonymous": false,
      "inputs": [
        {
          "indexed": false,
          "internalType": "address",
          "name": "owner",
          "type": "address"
        },
        {
          "indexed": false,
          "internalType": "uint256",
          "name": "kittenId",
          "type": "uint256"
        },
        {
          "indexed": false,
          "internalType": "uint256",
          "name": "momId",
          "type": "uint256"
        },
        {
          "indexed": false,
          "internalType": "uint256",
          "name": "dadId",
          "type": "uint256"
        },
        {
          "indexed": false,
          "internalType": "uint256",
          "name": "genes",
          "type": "uint256"
        }
      ],
      "name": "Birth",
      "type": "event"
    },
    {
      "anonymous": false,
      "inputs": [
        {
          "indexed": true,
          "internalType": "address",
          "name": "from",
          "type": "address"
        },
        {
          "indexed": true,
          "internalType": "address",
          "name": "to",
          "type": "address"
        },
        {
          "indexed": true,
          "internalType": "uint256",
          "name": "tokenId",
          "type": "uint256"
        }
      ],
      "name": "Transfer",
      "type": "event"
    },
    {
      "constant": true,
      "inputs": [],
      "name": "gen0Counter",
      "outputs": [
        {
          "internalType": "uint256",
          "name": "",
          "type": "uint256"
        }
      ],
      "payable": false,
      "stateMutability": "view",
      "type": "function"
    },
    {
      "constant": true,
      "inputs": [
        {
          "internalType": "uint256",
          "name": "",
          "type": "uint256"
        }
      ],
      "name": "kitties",
      "outputs": [
        {
          "internalType": "uint256",
          "name": "genes",
          "type": "uint256"
        },
        {
          "internalType": "uint256",
          "name": "birthTime",
          "type": "uint256"
        },
        {
          "internalType": "uint256",
          "name": "dadID",
          "type": "uint256"
        },
        {
          "internalType": "uint256",
          "name": "momID",
          "type": "uint256"
        },
        {
          "internalType": "uint256",
          "name": "generation",
          "type": "uint256"
        }
      ],
      "payable": false,
      "stateMutability": "view",
      "type": "function"
    },
    {
      "constant": true,
      "inputs": [
        {
          "internalType": "uint256",
          "name": "",
          "type": "uint256"
        }
      ],
      "name": "kittyIndexApproved",
      "outputs": [
        {
          "internalType": "address",
          "name": "",
          "type": "address"
        }
      ],
      "payable": false,
      "stateMutability": "view",
      "type": "function"
    },
    {
      "constant": true,
      "inputs": [],
      "name": "owner",
      "outputs": [
        {
          "internalType": "address",
          "name": "",
          "type": "address"
        }
      ],
      "payable": false,
      "stateMutability": "view",
      "type": "function"
    },
    {
      "constant": true,
      "inputs": [
        {
          "internalType": "bytes4",
          "name": "_interfaceId",
          "type": "bytes4"
        }
      ],
      "name": "supportsInterface",
      "outputs": [
        {
          "internalType": "bool",
          "name": "",
          "type": "bool"
        }
      ],
      "payable": false,
      "stateMutability": "view",
      "type": "function"
    },
    {
      "constant": false,
      "inputs": [
        {
          "internalType": "address",
          "name": "_from",
          "type": "address"
        },
        {
          "internalType": "address",
          "name": "_to",
          "type": "address"
        },
        {
          "internalType": "uint256",
          "name": "_tokenId",
          "type": "uint256"
        }
      ],
      "name": "transferFrom",
      "outputs": [],
      "payable": false,
      "stateMutability": "nonpayable",
      "type": "function"
    },
    {
      "constant": false,
      "inputs": [
        {
          "internalType": "address",
          "name": "_from",
          "type": "address"
        },
        {
          "internalType": "address",
          "name": "_to",
          "type": "address"
        },
        {
          "internalType": "uint256",
          "name": "_tokenId",
          "type": "uint256"
        }
      ],
      "name": "safeTransferFrom",
      "outputs": [],
      "payable": false,
      "stateMutability": "nonpayable",
      "type": "function"
    },
    {
      "constant": false,
      "inputs": [
        {
          "internalType": "address",
          "name": "_from",
          "type": "address"
        },
        {
          "internalType": "address",
          "name": "_to",
          "type": "address"
        },
        {
          "internalType": "uint256",
          "name": "_tokenId",
          "type": "uint256"
        },
        {
          "internalType": "bytes",
          "name": "_data",
          "type": "bytes"
        }
      ],
      "name": "safeTransferFrom",
      "outputs": [],
      "payable": false,
      "stateMutability": "nonpayable",
      "type": "function"
    },
    {
      "constant": false,
      "inputs": [
        {
          "internalType": "address",
          "name": "_approved",
          "type": "address"
        },
        {
          "internalType": "uint256",
          "name": "_tokenId",
          "type": "uint256"
        }
      ],
      "name": "approve",
      "outputs": [],
      "payable": false,
      "stateMutability": "nonpayable",
      "type": "function"
    },
    {
      "constant": false,
      "inputs": [
        {
          "internalType": "address",
          "name": "_operator",
          "type": "address"
        },
        {
          "internalType": "bool",
          "name": "_approved",
          "type": "bool"
        }
      ],
      "name": "setApprovalForAll",
      "outputs": [],
      "payable": false,
      "stateMutability": "nonpayable",
      "type": "function"
    },
    {
      "constant": true,
      "inputs": [
        {
          "internalType": "uint256",
          "name": "_tokenId",
          "type": "uint256"
        }
      ],
      "name": "getApproved",
      "outputs": [
        {
          "internalType": "address",
          "name": "",
          "type": "address"
        }
      ],
      "payable": false,
      "stateMutability": "view",
      "type": "function"
    },
    {
      "constant": true,
      "inputs": [
        {
          "internalType": "address",
          "name": "_owner",
          "type": "address"
        },
        {
          "internalType": "address",
          "name": "_operator",
          "type": "address"
        }
      ],
      "name": "isApprovedForAll",
      "outputs": [
        {
          "internalType": "bool",
          "name": "",
          "type": "bool"
        }
      ],
      "payable": false,
      "stateMutability": "view",
      "type": "function"
    },
    {
      "constant": false,
      "inputs": [
        {
          "internalType": "uint256",
          "name": "_genes",
          "type": "uint256"
        }
      ],
      "name": "createKittyGen0",
      "outputs": [
        {
          "internalType": "uint256",
          "name": "",
          "type": "uint256"
        }
      ],
      "payable": false,
      "stateMutability": "nonpayable",
      "type": "function"
    },
    {
      "constant": false,
      "inputs": [
        {
          "internalType": "address",
          "name": "to",
          "type": "address"
        },
        {
          "internalType": "uint256",
          "name": "tokenId",
          "type": "uint256"
        }
      ],
      "name": "transfer",
      "outputs": [],
      "payable": false,
      "stateMutability": "nonpayable",
      "type": "function"
    },
    {
      "constant": true,
      "inputs": [
        {
          "internalType": "address",
          "name": "owner",
          "type": "address"
        }
      ],
      "name": "getOwnedIds",
      "outputs": [
        {
          "internalType": "uint256[]",
          "name": "",
          "type": "uint256[]"
        }
      ],
      "payable": false,
      "stateMutability": "view",
      "type": "function"
    },
    {
      "constant": true,
      "inputs": [
        {
          "internalType": "uint256",
          "name": "tokenId",
          "type": "uint256"
        }
      ],
      "name": "getKitty",
      "outputs": [
        {
          "internalType": "uint256",
          "name": "genes",
          "type": "uint256"
        },
        {
          "internalType": "uint256",
          "name": "birthTime",
          "type": "uint256"
        },
        {
          "internalType": "uint256",
          "name": "dadID",
          "type": "uint256"
        },
        {
          "internalType": "uint256",
          "name": "momID",
          "type": "uint256"
        },
        {
          "internalType": "uint256",
          "name": "generation",
          "type": "uint256"
        },
        {
          "internalType": "address",
          "name": "owner",
          "type": "address"
        }
      ],
      "payable": false,
      "stateMutability": "view",
      "type": "function"
    },
    {
      "constant": true,
      "inputs": [
        {
          "internalType": "address",
          "name": "owner",
          "type": "address"
        }
      ],
      "name": "balanceOf",
      "outputs": [
        {
          "internalType": "uint256",
          "name": "balance",
          "type": "uint256"
        }
      ],
      "payable": false,
      "stateMutability": "view",
      "type": "function"
    },
    {
      "constant": true,
      "inputs": [],
      "name": "totalSupply",
      "outputs": [
        {
          "internalType": "uint256",
          "name": "total",
          "type": "uint256"
        }
      ],
      "payable": false,
      "stateMutability": "view",
      "type": "function"
    },
    {
      "constant": true,
      "inputs": [],
      "name": "name",
      "outputs": [
        {
          "internalType": "string",
          "name": "tokenName",
          "type": "string"
        }
      ],
      "payable": false,
      "stateMutability": "view",
      "type": "function"
    },
    {
      "constant": true,
      "inputs": [],
      "name": "symbol",
      "outputs": [
        {
          "internalType": "string",
          "name": "tokenSymbol",
          "type": "string"
        }
      ],
      "payable": false,
      "stateMutability": "view",
      "type": "function"
    },
    {
      "constant": true,
      "inputs": [
        {
          "internalType": "uint256",
          "name": "tokenId",
          "type": "uint256"
        }
      ],
      "name": "ownerOf",
      "outputs": [
        {
          "internalType": "address",
          "name": "owner",
          "type": "address"
        }
      ],
      "payable": false,
      "stateMutability": "view",
      "type": "function"
    },
    {
      "constant": false,
      "inputs": [
        {
          "internalType": "uint256",
          "name": "_dadId",
          "type": "uint256"
        },
        {
          "internalType": "uint256",
          "name": "_momId",
          "type": "uint256"
        }
      ],
      "name": "breed",
      "outputs": [
        {
          "internalType": "uint256",
          "name": "",
          "type": "uint256"
        }
      ],
      "payable": false,
      "stateMutability": "nonpayable",
      "type": "function"
    },
    {
      "constant": true,
      "inputs": [
        {
          "internalType": "uint256",
          "name": "_dadDna",
          "type": "uint256"
        },
        {
          "internalType": "uint256",
          "name": "_momDna",
          "type": "uint256"
        }
      ],
      "name": "_mixDNA",
      "outputs": [
        {
          "internalType": "uint256",
          "name": "",
          "type": "uint256"
        }
      ],
      "payable": false,
      "stateMutability": "view",
      "type": "function"
    }
  ],
  "bytecode": "0x6080604052336000806101000a81548173ffffffffffffffffffffffffffffffffffffffff021916908373ffffffffffffffffffffffffffffffffffffffff1602179055506122a9806100536000396000f3fe608060405234801561001057600080fd5b506004361061014d5760003560e01c80638cc51eda116100c3578063d5a776ca1161007c578063d5a776ca146107fc578063d9ecad7b1461083e578063e985e9c51461088a578063e98b7f4d14610906578063eec1cbb714610997578063ef5e94aa14610a305761014d565b80638cc51eda146105705780638da5cb5b146105ce57806395d89b4114610618578063a22cb4651461069b578063a9059cbb146106eb578063b88d4fde146107395761014d565b806318160ddd1161011557806318160ddd1461034257806323b872dd1461036057806342842e0e146103ce5780636352211e1461043c57806370a08231146104aa57806375ad5f3f146105025761014d565b806301ffc9a71461015257806306fdde03146101b7578063081812fc1461023a578063095ea7b3146102a857806312da13bc146102f6575b600080fd5b61019d6004803603602081101561016857600080fd5b8101908080357bffffffffffffffffffffffffffffffffffffffffffffffffffffffff19169060200190929190505050610a4e565b604051808215151515815260200191505060405180910390f35b6101bf610aee565b6040518080602001828103825283818151815260200191508051906020019080838360005b838110156101ff5780820151818401526020810190506101e4565b50505050905090810190601f16801561022c5780820380516001836020036101000a031916815260200191505b509250505060405180910390f35b6102666004803603602081101561025057600080fd5b8101908080359060200190929190505050610b2b565b604051808273ffffffffffffffffffffffffffffffffffffffff1673ffffffffffffffffffffffffffffffffffffffff16815260200191505060405180910390f35b6102f4600480360360408110156102be57600080fd5b81019080803573ffffffffffffffffffffffffffffffffffffffff16906020019092919080359060200190929190505050610be2565b005b61032c6004803603604081101561030c57600080fd5b810190808035906020019092919080359060200190929190505050610c5e565b6040518082815260200191505060405180910390f35b61034a610dd8565b6040518082815260200191505060405180910390f35b6103cc6004803603606081101561037657600080fd5b81019080803573ffffffffffffffffffffffffffffffffffffffff169060200190929190803573ffffffffffffffffffffffffffffffffffffffff16906020019092919080359060200190929190505050610de5565b005b61043a600480360360608110156103e457600080fd5b81019080803573ffffffffffffffffffffffffffffffffffffffff169060200190929190803573ffffffffffffffffffffffffffffffffffffffff16906020019092919080359060200190929190505050610e0a565b005b6104686004803603602081101561045257600080fd5b8101908080359060200190929190505050610e3f565b604051808273ffffffffffffffffffffffffffffffffffffffff1673ffffffffffffffffffffffffffffffffffffffff16815260200191505060405180910390f35b6104ec600480360360208110156104c057600080fd5b81019080803573ffffffffffffffffffffffffffffffffffffffff169060200190929190505050610f04565b6040518082815260200191505060405180910390f35b61052e6004803603602081101561051857600080fd5b8101908080359060200190929190505050610f4d565b604051808273ffffffffffffffffffffffffffffffffffffffff1673ffffffffffffffffffffffffffffffffffffffff16815260200191505060405180910390f35b61059c6004803603602081101561058657600080fd5b8101908080359060200190929190505050610f80565b604051808681526020018581526020018481526020018381526020018281526020019550505050505060405180910390f35b6105d6610fc3565b604051808273ffffffffffffffffffffffffffffffffffffffff1673ffffffffffffffffffffffffffffffffffffffff16815260200191505060405180910390f35b610620610fe8565b6040518080602001828103825283818151815260200191508051906020019080838360005b83811015610660578082015181840152602081019050610645565b50505050905090810190601f16801561068d5780820380516001836020036101000a031916815260200191505b509250505060405180910390f35b6106e9600480360360408110156106b157600080fd5b81019080803573ffffffffffffffffffffffffffffffffffffffff169060200190929190803515159060200190929190505050611025565b005b6107376004803603604081101561070157600080fd5b81019080803573ffffffffffffffffffffffffffffffffffffffff169060200190929190803590602001909291905050506111ab565b005b6107fa6004803603608081101561074f57600080fd5b81019080803573ffffffffffffffffffffffffffffffffffffffff169060200190929190803573ffffffffffffffffffffffffffffffffffffffff16906020019092919080359060200190929190803590602001906401000000008111156107b657600080fd5b8201836020820111156107c857600080fd5b803590602001918460018302840111640100000000831117156107ea57600080fd5b9091929391929390505050611399565b005b6108286004803603602081101561081257600080fd5b8101908080359060200190929190505050611405565b6040518082815260200191505060405180910390f35b6108746004803603604081101561085457600080fd5b810190808035906020019092919080359060200190929190505050611504565b6040518082815260200191505060405180910390f35b6108ec600480360360408110156108a057600080fd5b81019080803573ffffffffffffffffffffffffffffffffffffffff169060200190929190803573ffffffffffffffffffffffffffffffffffffffff1690602001909291905050506115fd565b604051808215151515815260200191505060405180910390f35b6109326004803603602081101561091c57600080fd5b8101908080359060200190929190505050611691565b604051808781526020018681526020018581526020018481526020018381526020018273ffffffffffffffffffffffffffffffffffffffff1673ffffffffffffffffffffffffffffffffffffffff168152602001965050505050505060405180910390f35b6109d9600480360360208110156109ad57600080fd5b81019080803573ffffffffffffffffffffffffffffffffffffffff16906020019092919050505061177e565b6040518080602001828103825283818151815260200191508051906020019060200280838360005b83811015610a1c578082015181840152602081019050610a01565b505050509050019250505060405180910390f35b610a3861187b565b6040518082815260200191505060405180910390f35b60006380ac58cd60e01b7bffffffffffffffffffffffffffffffffffffffffffffffffffffffff1916827bffffffffffffffffffffffffffffffffffffffffffffffffffffffff19161480610ae757506301ffc9a760e01b7bffffffffffffffffffffffffffffffffffffffffffffffffffffffff1916827bffffffffffffffffffffffffffffffffffffffffffffffffffffffff1916145b9050919050565b60606040518060400160405280600a81526020017f4b6974747920436f696e00000000000000000000000000000000000000000000815250905090565b60006002805490508210610ba7576040517f08c379a000000000000000000000000000000000000000000000000000000000815260040180806020018281038252601d8152602001807f5468617420746f6b656e20646f65736e27742065786973742c2062726f00000081525060200191505060405180910390fd5b6005600083815260200190815260200160002060009054906101000a900473ffffffffffffffffffffffffffffffffffffffff169050919050565b610bec3382611881565b610bf557600080fd5b610bff82826118ed565b808273ffffffffffffffffffffffffffffffffffffffff163373ffffffffffffffffffffffffffffffffffffffff167f8c5be1e5ebec7d5bd14f71427d1e84f3dd0314c0f7b2291e5b200ac8c7c3b92560405160405180910390a45050565b600080429050600080600090505b6009811015610dcc5780600a0a8381610c8157fe5b0492506000600a8481610c9057fe5b0690506000821415610d0a57600060028281610ca857fe5b061415610cdc57600082600202601003600a0a8881610cc357fe5b04905082600202601003600a0a81028401935050610d05565b600082600202601003600a0a8781610cf057fe5b04905082600202601003600a0a810284019350505b610dbe565b600060028281610d1657fe5b061415610d6f57600082600202601003600a0a8881610d3157fe5b04905082600202601003600a0a8102905082600202601203600a0a83600202601203600a0a8981610d5e57fe5b040281039050808401935050610dbd565b600082600202601003600a0a8781610d8357fe5b04905082600202601003600a0a8102905082600202601203600a0a83600202601203600a0a8881610db057fe5b0402810390508084019350505b5b508080600101915050610c6c565b50809250505092915050565b6000600280549050905090565b610df133848484611943565b610dfa57600080fd5b610e05838383611aff565b505050565b610e1633848484611943565b610e1f57600080fd5b610e3a83838360405180602001604052806000815250611cbb565b505050565b60008160028054905010158015610e57575060008214155b610ec9576040517f08c379a00000000000000000000000000000000000000000000000000000000081526004018080602001828103825260198152602001807f5468697320746f6b656e20646f6573206e6f742065786973740000000000000081525060200191505060405180910390fd5b6004600083815260200190815260200160002060009054906101000a900473ffffffffffffffffffffffffffffffffffffffff169050919050565b6000600360008373ffffffffffffffffffffffffffffffffffffffff1673ffffffffffffffffffffffffffffffffffffffff168152602001908152602001600020549050919050565b60056020528060005260406000206000915054906101000a900473ffffffffffffffffffffffffffffffffffffffff1681565b60028181548110610f8d57fe5b90600052602060002090600502016000915090508060000154908060010154908060020154908060030154908060040154905085565b6000809054906101000a900473ffffffffffffffffffffffffffffffffffffffff1681565b60606040518060400160405280600381526020017f4b54430000000000000000000000000000000000000000000000000000000000815250905090565b3373ffffffffffffffffffffffffffffffffffffffff168273ffffffffffffffffffffffffffffffffffffffff1614156110aa576040517f08c379a000000000000000000000000000000000000000000000000000000000815260040180806020018281038252603e8152602001806121ba603e913960400191505060405180910390fd5b80600660003373ffffffffffffffffffffffffffffffffffffffff1673ffffffffffffffffffffffffffffffffffffffff16815260200190815260200160002060008473ffffffffffffffffffffffffffffffffffffffff1673ffffffffffffffffffffffffffffffffffffffff16815260200190815260200160002060006101000a81548160ff0219169083151502179055508173ffffffffffffffffffffffffffffffffffffffff163373ffffffffffffffffffffffffffffffffffffffff167f17307eab39ab6107e8899845ad3d59bd9653f200f220920489ca2b5937696c3183604051808215151515815260200191505060405180910390a35050565b600073ffffffffffffffffffffffffffffffffffffffff168273ffffffffffffffffffffffffffffffffffffffff161415611231576040517f08c379a000000000000000000000000000000000000000000000000000000000815260040180806020018281038252602c8152602001806121f8602c913960400191505060405180910390fd5b3073ffffffffffffffffffffffffffffffffffffffff168273ffffffffffffffffffffffffffffffffffffffff1614156112b6576040517f08c379a00000000000000000000000000000000000000000000000000000000081526004018080602001828103825260258152602001806122506025913960400191505060405180910390fd5b3373ffffffffffffffffffffffffffffffffffffffff166004600083815260200190815260200160002060009054906101000a900473ffffffffffffffffffffffffffffffffffffffff1673ffffffffffffffffffffffffffffffffffffffff161461138a576040517f08c379a000000000000000000000000000000000000000000000000000000000815260040180806020018281038252601b8152602001807f53656e64657220646f6573206e6f74206f776e20746f6b656e4964000000000081525060200191505060405180910390fd5b611395338383611aff565b5050565b6113a533868686611943565b6113ae57600080fd5b6113fe85858585858080601f016020809104026020016040519081016040528093929190818152602001838380828437600081840152601f19601f82011690508083019250505050505050611cbb565b5050505050565b60008060009054906101000a900473ffffffffffffffffffffffffffffffffffffffff1673ffffffffffffffffffffffffffffffffffffffff163373ffffffffffffffffffffffffffffffffffffffff161461146057600080fd5b600a61ffff16600154106114dc576040517f08c379a000000000000000000000000000000000000000000000000000000000815260040180806020018281038252601d8152602001807f5468652067617264656e206f66206564656e2068617320636c6f73656400000081525060200191505060405180910390fd5b6001600081548092919060010191905055506114fd60008060008533611ce1565b9050919050565b60006115103384611881565b801561152257506115213383611881565b5b611577576040517f08c379a000000000000000000000000000000000000000000000000000000000815260040180806020018281038252602c815260200180612224602c913960400191505060405180910390fd5b60006115bf6002858154811061158957fe5b906000526020600020906005020160000154600285815481106115a857fe5b906000526020600020906005020160000154610c5e565b905060006001600285815481106115d257fe5b9060005260206000209060050201600401540190506115f48486838533611ce1565b50505092915050565b6000600660008473ffffffffffffffffffffffffffffffffffffffff1673ffffffffffffffffffffffffffffffffffffffff16815260200190815260200160002060008373ffffffffffffffffffffffffffffffffffffffff1673ffffffffffffffffffffffffffffffffffffffff16815260200190815260200160002060009054906101000a900460ff16905092915050565b600080600080600080600287815481106116a757fe5b9060005260206000209060050201600001549550600287815481106116c857fe5b9060005260206000209060050201600101549450600287815481106116e957fe5b90600052602060002090600502016002015493506002878154811061170a57fe5b90600052602060002090600502016003015492506002878154811061172b57fe5b90600052602060002090600502016004015491506004600088815260200190815260200160002060009054906101000a900473ffffffffffffffffffffffffffffffffffffffff16905091939550919395565b6060600061178b83611e3b565b90506060816040519080825280602002602001820160405280156117be5781602001602082028038833980820191505090505b509050600080905060008090505b60028054905081101561186f578573ffffffffffffffffffffffffffffffffffffffff166004600083815260200190815260200160002060009054906101000a900473ffffffffffffffffffffffffffffffffffffffff1673ffffffffffffffffffffffffffffffffffffffff161415611862578083838151811061184d57fe5b60200260200101818152505081806001019250505b80806001019150506117cc565b50819350505050919050565b60015481565b60008273ffffffffffffffffffffffffffffffffffffffff166004600084815260200190815260200160002060009054906101000a900473ffffffffffffffffffffffffffffffffffffffff1673ffffffffffffffffffffffffffffffffffffffff1614905092915050565b816005600083815260200190815260200160002060006101000a81548173ffffffffffffffffffffffffffffffffffffffff021916908373ffffffffffffffffffffffffffffffffffffffff1602179055505050565b600060028054905082106119a2576040517f08c379a000000000000000000000000000000000000000000000000000000000815260040180806020018281038252604181526020018061214a6041913960600191505060405180910390fd5b600073ffffffffffffffffffffffffffffffffffffffff168373ffffffffffffffffffffffffffffffffffffffff161415611a28576040517f08c379a000000000000000000000000000000000000000000000000000000000815260040180806020018281038252602d81526020018061211d602d913960400191505060405180910390fd5b611a328483611881565b611aa4576040517f08c379a000000000000000000000000000000000000000000000000000000000815260040180806020018281038252601f8152602001807f546869732067757920646f65736e2774206f776e207468617420746f6b656e0081525060200191505060405180910390fd5b8373ffffffffffffffffffffffffffffffffffffffff168573ffffffffffffffffffffffffffffffffffffffff161480611ae45750611ae38583611e84565b5b80611af55750611af484866115fd565b5b9050949350505050565b816004600083815260200190815260200160002060006101000a81548173ffffffffffffffffffffffffffffffffffffffff021916908373ffffffffffffffffffffffffffffffffffffffff160217905550600360008373ffffffffffffffffffffffffffffffffffffffff1673ffffffffffffffffffffffffffffffffffffffff16815260200190815260200160002060008154809291906001019190505550600073ffffffffffffffffffffffffffffffffffffffff168373ffffffffffffffffffffffffffffffffffffffff1614611c5b57600360008473ffffffffffffffffffffffffffffffffffffffff1673ffffffffffffffffffffffffffffffffffffffff16815260200190815260200160002060008154809291906001900391905055506005600082815260200190815260200160002060006101000a81549073ffffffffffffffffffffffffffffffffffffffff02191690555b808273ffffffffffffffffffffffffffffffffffffffff168473ffffffffffffffffffffffffffffffffffffffff167fddf252ad1be2c89b69c2b068fc378daa952ba7f163c4a11628f55a4df523b3ef60405160405180910390a4505050565b611cc6848484611aff565b611cd284848484611ef0565b611cdb57600080fd5b50505050565b6000611ceb6120ed565b6040518060a001604052808581526020014267ffffffffffffffff1681526020018763ffffffff1681526020018863ffffffff1681526020018661ffff168152509050600281908060018154018082558091505090600182039060005260206000209060050201600090919290919091506000820151816000015560208201518160010155604082015181600201556060820151816003015560808201518160040155505050600060016002805490500390507f0a5311bd2a6608f08a180df2ee7c5946819a649b204b554bb8e39825b2c50ad584828a8a89604051808673ffffffffffffffffffffffffffffffffffffffff1673ffffffffffffffffffffffffffffffffffffffff1681526020018581526020018481526020018381526020018281526020019550505050505060405180910390a1611e2d60008583611aff565b809250505095945050505050565b6000600360008373ffffffffffffffffffffffffffffffffffffffff1673ffffffffffffffffffffffffffffffffffffffff168152602001908152602001600020549050919050565b60008273ffffffffffffffffffffffffffffffffffffffff166005600084815260200190815260200160002060009054906101000a900473ffffffffffffffffffffffffffffffffffffffff1673ffffffffffffffffffffffffffffffffffffffff1614905092915050565b6000611efb846120d4565b611f0857600190506120cc565b60008473ffffffffffffffffffffffffffffffffffffffff1663150b7a02338887876040518563ffffffff1660e01b8152600401808573ffffffffffffffffffffffffffffffffffffffff1673ffffffffffffffffffffffffffffffffffffffff1681526020018473ffffffffffffffffffffffffffffffffffffffff1673ffffffffffffffffffffffffffffffffffffffff16815260200183815260200180602001828103825283818151815260200191508051906020019080838360005b83811015611fe3578082015181840152602081019050611fc8565b50505050905090810190601f1680156120105780820380516001836020036101000a031916815260200191505b5095505050505050602060405180830381600087803b15801561203257600080fd5b505af1158015612046573d6000803e3d6000fd5b505050506040513d602081101561205c57600080fd5b81019080805190602001909291905050509050604051808061218b602f9139602f01905060405180910390207bffffffffffffffffffffffffffffffffffffffffffffffffffffffff1916817bffffffffffffffffffffffffffffffffffffffffffffffffffffffff1916149150505b949350505050565b600080823b905060008163ffffffff1611915050919050565b6040518060a001604052806000815260200160008152602001600081526020016000815260200160008152509056fe446f6e27742073656e6420746861742063617420696e746f20746865206f626c6976696f6e2c20706c65617365546861742063617420646f65736e2774206578697374207965742e2e2e2044696420796f7520636f6d6520686572652066726f6d20746865206675747572653f216f6e455243373231526563656976656428616464726573732c616464726573732c75696e743235362c6279746573295768792061726520796f752064696e6720746869733f2020596f7520616c726561647920686176652061636365737320746f20796f757220746f6b656e73446f6e27742073656e6420796f757220746f6b656e20696e746f2074686520656e646c657373206162797373596f752068617665206e6f20726967687420746f20666f726365206272656564207468657365206361747321446f6e27742073656e6420796f757220746f6b656e20746f20746869732061646472657373a265627a7a72315820b52d54694a6464f157233c4c69e865a5c989720701f7b0244505e472b74cfa3e64736f6c634300050c0032",
  "source": "pragma solidity ^0.5.12;\r\nimport \"./IERC721.sol\";\r\nimport \"./Ownable.sol\";\r\nimport \"./IERC721Receiver.sol\";\r\n\r\ncontract Kittycontract is IERC721, Ownable{\r\n\r\n    event Transfer(address indexed from, address indexed to, uint256 indexed tokenId);\r\n    event Birth(address owner, uint256 kittenId, uint256 momId, uint256 dadId, uint256 genes);\r\n    event ApprovalForAll(address indexed owner, address indexed operator, bool approved);\r\n    event Approval(address indexed owner, address indexed approved, uint256 indexed tokenId);\r\n\r\n    //do I need to include an IERC165 in the \"is\" portion of the contract title?\r\n    bytes4 private constant _INTERFACE_ID_ERC721 = 0x80ac58cd;\r\n    bytes4 private constant _INTERFACE_ID_ERC165 = 0x01ffc9a7;\r\n\r\n    uint16 private constant gen0Limit = 10;\r\n    string private constant _name= \"Kitty Coin\";\r\n    string private constant _symbol = \"KTC\";\r\n    uint256 public gen0Counter;\r\n    bytes4 internal constant MAGIC_ERC721_RECEIVED = bytes4(keccak256(\"onERC721Received(address,address,uint256,bytes)\"));\r\n    \r\n    //kitty gender?\r\n    struct Kitty{\r\n        uint256 genes;\r\n        uint256 birthTime;\r\n        uint256 dadID;\r\n        uint256 momID;\r\n        uint256 generation;\r\n    }\r\n    \r\n    Kitty[] public kitties;    //is this set as private by default if I don't use public?\r\n\r\n    mapping(address=>uint256) private _ownersTokenBalance;    //each address's token balance\r\n    mapping(uint256 =>address) private _tokenOwner; //tokenID equal to the number of tokens when kitty created maps to each owner\r\n    //approval to transfer one of my tokens\r\n    mapping(uint256 => address) public kittyIndexApproved;    \r\n\r\n    //approval for all the tokens owned by an address\r\n    mapping(address =>mapping(address=>bool)) private _operatorApprovals;  //first input is the token owner's address\r\n\r\n    function supportsInterface(bytes4 _interfaceId) external view returns(bool){\r\n        return (_interfaceId == _INTERFACE_ID_ERC721 || _interfaceId ==_INTERFACE_ID_ERC165);\r\n    }\r\n\r\n    function _isApprovedOrOwner(address _spender, address _from, address _to, uint256 _tokenId) internal view returns(bool){\r\n        require(_tokenId<kitties.length,\"That cat doesn't exist yet... Did you come here from the future?!\");\r\n        require(_to != address(0), \"Don't send that cat into the oblivion, please\");\r\n        require(_owns(_from, _tokenId), \"This guy doesn't own that token\");\r\n        //spender is from OR spender is approved OR spender is operator for from\r\n        return (_spender == _from \r\n        || _approvedFor(_spender, _tokenId)\r\n        || isApprovedForAll(_from, _spender));\r\n    }\r\n\r\n\r\n    function transferFrom(address _from, address _to, uint256 _tokenId) external{\r\n        //does this fit here?\r\n        require(_isApprovedOrOwner(msg.sender, _from, _to, _tokenId));\r\n        _transfer(_from, _to, _tokenId);\r\n   }\r\n\r\n    function safeTransferFrom(address _from, address _to, uint256 _tokenId, bytes calldata _data) external{\r\n        require(_isApprovedOrOwner(msg.sender, _from, _to, _tokenId));\r\n        _safeTransfer(_from, _to, _tokenId, _data);\r\n    }\r\n\r\n    function safeTransferFrom(address _from, address _to, uint256 _tokenId) external{\r\n        require(_isApprovedOrOwner(msg.sender, _from, _to, _tokenId));\r\n        _safeTransfer(_from, _to, _tokenId, \"\");\r\n\r\n    }\r\n\r\n\r\n    function _safeTransfer(address _from, address _to, uint256 _tokenId, bytes memory _data) internal {\r\n        _transfer(_from, _to, _tokenId);\r\n        //why does the require come after?\r\n        require(_checkERC721Support(_from, _to, _tokenId, _data));\r\n    }\r\n\r\n    function approve(address _approved, uint256 _tokenId) public{\r\n        require(_owns(msg.sender, _tokenId));\r\n        _approve(_approved, _tokenId);\r\n        emit Approval(msg.sender, _approved, _tokenId);\r\n    }\r\n\r\n    function setApprovalForAll(address _operator, bool _approved) external{\r\n        require(_operator !=msg.sender, \"Why are you ding this?  You already have access to your tokens\");\r\n        _operatorApprovals[msg.sender][_operator]=_approved;\r\n        emit ApprovalForAll(msg.sender, _operator, _approved);\r\n    }\r\n\r\n    function getApproved(uint256 _tokenId) external view returns (address){\r\n        require(_tokenId<kitties.length, \"That token doesn't exist, bro\");\r\n        \r\n        return kittyIndexApproved[_tokenId];\r\n    }\r\n\r\n    function isApprovedForAll(address _owner, address _operator) public view returns (bool){\r\n        return _operatorApprovals[_owner][_operator];\r\n    }\r\n\r\n    function createKittyGen0(uint256 _genes) public onlyOwner returns(uint256){\r\n    require(gen0Counter<gen0Limit, \"The garden of eden has closed\");\r\n    gen0Counter ++;\r\n    return _createKitty(0, 0, 0, _genes, msg.sender);\r\n    }\r\n\r\n    function transfer(address to, uint256 tokenId) external{\r\n        require(to != address(0), \"Don't send your token into the endless abyss\");\r\n        require(to != address(this), \"Don't send your token to this address\");\r\n        require(_tokenOwner[tokenId]==msg.sender, \"Sender does not own tokenId\");\r\n        \r\n        _transfer(msg.sender, to, tokenId);\r\n    }\r\n\r\n    function getOwnedIds(address owner) public view returns(uint256[] memory){\r\n        //do I need this internal balanceOf?\r\n        uint256 arrayLength = _balanceOf(owner);\r\n        uint[] memory c = new uint[](arrayLength);\r\n        uint256 cIndex = 0;\r\n            for(uint256 i = 0; i<kitties.length; i++){\r\n                if(_tokenOwner[i]==owner){\r\n                c[cIndex]= i;\r\n                cIndex++;\r\n                }\r\n            }\r\n        return c;\r\n    }\r\n\r\n    function getKitty(uint256 tokenId) public view returns(\r\n    uint256 genes, \r\n    uint256 birthTime, \r\n    uint256 dadID, \r\n    uint256 momID, \r\n    uint256 generation,\r\n    address owner){\r\n   \r\n    genes = kitties[tokenId].genes;\r\n    birthTime = kitties[tokenId].birthTime;\r\n    dadID = kitties[tokenId].dadID;\r\n    momID = kitties[tokenId].momID;\r\n    generation = kitties[tokenId].generation;\r\n    owner = _tokenOwner[tokenId];\r\n    }\r\n\r\n    \r\n    function balanceOf(address owner) external view returns (uint256 balance){\r\n        balance = _ownersTokenBalance[owner];\r\n    }\r\n\r\n    function totalSupply() external view returns (uint256 total){\r\n        total = kitties.length;\r\n    }\r\n\r\n    function name() external view returns (string memory tokenName){\r\n        tokenName = _name;\r\n    }\r\n\r\n    function symbol() external view returns (string memory tokenSymbol){\r\n        tokenSymbol= _symbol;\r\n    }\r\n\r\n    function ownerOf(uint256 tokenId) external view returns (address owner){\r\n        require(kitties.length>=tokenId && tokenId!=0, \"This token does not exist\");\r\n        owner = _tokenOwner[tokenId];\r\n    }\r\n\r\n    function _transfer(address from, address to, uint256 tokenId) internal{\r\n        _tokenOwner[tokenId]= to;\r\n        _ownersTokenBalance[to]++;\r\n        if(from!=address(0)) {\r\n            _ownersTokenBalance[from]--;\r\n            delete kittyIndexApproved[tokenId];\r\n        }\r\n\r\n            emit Transfer(from, to, tokenId);\r\n    }\r\n\r\n    function _balanceOf(address owner) internal view returns (uint256 balance){\r\n        balance = _ownersTokenBalance[owner];\r\n    }\r\n\r\n    function breed(uint256 _dadId, uint256 _momId) public returns(uint256){\r\n        require(_owns(msg.sender, _dadId)&&_owns(msg.sender, _momId), \"You have no right to force breed these cats!\");\r\n        uint256 newDNA = _mixDNA(kitties[_dadId].genes, kitties[_momId].genes);\r\n        uint256 generation = kitties[_momId].generation+1;\r\n        _createKitty(_momId, _dadId, generation, newDNA, msg.sender);\r\n    }\r\n\r\n    function _createKitty(uint256 _momID, uint256 _dadID, uint256 _generation, uint256 _genes, address _owner) internal \r\n    returns(uint256){\r\n    Kitty memory _kitty = Kitty({\r\n        genes: _genes, \r\n        birthTime: uint64(now),\r\n        momID: uint32(_momID),\r\n        dadID: uint32(_dadID),\r\n        generation: uint16(_generation)\r\n    });\r\n\r\n    kitties.push(_kitty); \r\n    uint256 newKittenId = kitties.length-1;\r\n    emit Birth(_owner, newKittenId, _momID, _dadID, _genes);\r\n    _transfer(address(0), _owner, newKittenId);\r\n\r\n    return newKittenId;\r\n    }\r\n\r\n    //does it cost more or less gas to use internal functions like _owns and _approve within external functions?\r\n    //I am not quite sure why we do this instead of simply writing require(_tokenOwner[_tokenId]==msg.sender); to check ownership\r\n    function _owns(address _claimant, uint256 _tokenId) internal view returns (bool){\r\n        return _tokenOwner[_tokenId]==_claimant;\r\n    }\r\n    function _approve(address _approved, uint256 _tokenId) internal{\r\n        kittyIndexApproved[_tokenId]=_approved;\r\n    }\r\n\r\n    function _approvedFor(address _claimant, uint256 _tokenId) internal view returns(bool){\r\n        return kittyIndexApproved[_tokenId] == _claimant;\r\n    }\r\n\r\n    function _checkERC721Support(address _from, address _to, uint256 _tokenId, bytes memory _data) internal returns(bool){\r\n        if(!_isContract(_to)){\r\n            return true;\r\n        }\r\n\r\n        //onERC721Recieved execution in the _to contract and check return value\r\n        bytes4 returnData = IERC721Receiver(_to).onERC721Received(msg.sender, _from, _tokenId, _data);\r\n        return returnData == MAGIC_ERC721_RECEIVED;\r\n    }\r\n\r\n    function _isContract(address _to) view internal returns(bool){\r\n        uint32 size;\r\n        assembly{\r\n            size:=extcodesize(_to)\r\n        }\r\n        return size>0;\r\n    }\r\n\r\n    function _mixDNA(uint _dadDna, uint _momDna) public view returns(uint256){\r\n        uint randGenerator = block.timestamp;\r\n        uint newDNA;\r\n        for(uint i = 0; i<9; i++){\r\n            randGenerator /=(10**i);\r\n            uint randDigit = randGenerator%10;\r\n            \r\n            if(i==0){\r\n                if(randDigit%2 ==0) {\r\n                    uint addedDna = (_dadDna/(10**(16-(2*i))));\r\n                    newDNA += addedDna *(10**(16-(2*i)));\r\n                }\r\n                else {\r\n                    uint addedDna = (_momDna/(10**(16-(2*i))));\r\n                    newDNA += addedDna*(10**(16-(2*i)));\r\n                }\r\n            }\r\n            else{\r\n                if(randDigit%2 ==0){\r\n                    uint addedDna = _dadDna/(10**(16-(2*i)));\r\n                    addedDna *= (10**(16-(2*i)));\r\n                    addedDna -= _dadDna/(10**(18-(2*i)))*(10**(18-(2*i)));\r\n                    newDNA +=addedDna;\r\n                }\r\n                else{\r\n                    uint addedDna =_momDna/(10**(16-(2*i)));\r\n                    addedDna *= (10**(16-(2*i)));\r\n                    addedDna -=(_momDna/(10**(18-(2*i)))) * (10**(18-(2*i)));\r\n                    newDNA += addedDna;\r\n                }\r\n            }\r\n        }\r\n        return newDNA;\r\n    }\r\n}\r\n\r\n",
  "sourcePath": "C:\\Users\\yan\\Documents\\GitHub\\CryptoKitties\\contracts\\Kittycontract.sol",
  "compiler": {
    "name": "solc",
    "version": "0.5.12+commit.7709ece9.Emscripten.clang"
  },
  "schemaVersion": "3.2.0",
  "updatedAt": "2020-11-16T07:26:01.828Z",
  "networkType": "ethereum",
  "devdoc": {
    "methods": {}
  },
  "userdoc": {
    "methods": {}
  }
}