{
  "contractName": "Kittycontract",
  "abi": [
    {
      "inputs": [],
      "payable": false,
      "stateMutability": "nonpayable",
      "type": "constructor"
    },
    {
      "anonymous": false,
      "inputs": [
        {
          "indexed": true,
          "internalType": "address",
          "name": "owner",
          "type": "address"
        },
        {
          "indexed": true,
          "internalType": "address",
          "name": "approved",
          "type": "address"
        },
        {
          "indexed": true,
          "internalType": "uint256",
          "name": "tokenId",
          "type": "uint256"
        }
      ],
      "name": "Approval",
      "type": "event"
    },
    {
      "anonymous": false,
      "inputs": [
        {
          "indexed": true,
          "internalType": "address",
          "name": "owner",
          "type": "address"
        },
        {
          "indexed": true,
          "internalType": "address",
          "name": "operator",
          "type": "address"
        },
        {
          "indexed": false,
          "internalType": "bool",
          "name": "approved",
          "type": "bool"
        }
      ],
      "name": "ApprovalForAll",
      "type": "event"
    },
    {
      "anonymous": false,
      "inputs": [
        {
          "indexed": false,
          "internalType": "address",
          "name": "owner",
          "type": "address"
        },
        {
          "indexed": false,
          "internalType": "uint256",
          "name": "kittenId",
          "type": "uint256"
        },
        {
          "indexed": false,
          "internalType": "uint256",
          "name": "momId",
          "type": "uint256"
        },
        {
          "indexed": false,
          "internalType": "uint256",
          "name": "dadId",
          "type": "uint256"
        },
        {
          "indexed": false,
          "internalType": "uint256",
          "name": "genes",
          "type": "uint256"
        }
      ],
      "name": "Birth",
      "type": "event"
    },
    {
      "anonymous": false,
      "inputs": [
        {
          "indexed": true,
          "internalType": "address",
          "name": "from",
          "type": "address"
        },
        {
          "indexed": true,
          "internalType": "address",
          "name": "to",
          "type": "address"
        },
        {
          "indexed": true,
          "internalType": "uint256",
          "name": "tokenId",
          "type": "uint256"
        }
      ],
      "name": "Transfer",
      "type": "event"
    },
    {
      "constant": true,
      "inputs": [],
      "name": "gen0Counter",
      "outputs": [
        {
          "internalType": "uint256",
          "name": "",
          "type": "uint256"
        }
      ],
      "payable": false,
      "stateMutability": "view",
      "type": "function"
    },
    {
      "constant": true,
      "inputs": [
        {
          "internalType": "uint256",
          "name": "",
          "type": "uint256"
        }
      ],
      "name": "kitties",
      "outputs": [
        {
          "internalType": "uint256",
          "name": "genes",
          "type": "uint256"
        },
        {
          "internalType": "uint256",
          "name": "birthTime",
          "type": "uint256"
        },
        {
          "internalType": "uint256",
          "name": "dadID",
          "type": "uint256"
        },
        {
          "internalType": "uint256",
          "name": "momID",
          "type": "uint256"
        },
        {
          "internalType": "uint256",
          "name": "generation",
          "type": "uint256"
        }
      ],
      "payable": false,
      "stateMutability": "view",
      "type": "function"
    },
    {
      "constant": true,
      "inputs": [
        {
          "internalType": "uint256",
          "name": "",
          "type": "uint256"
        }
      ],
      "name": "kittyIndexApproved",
      "outputs": [
        {
          "internalType": "address",
          "name": "",
          "type": "address"
        }
      ],
      "payable": false,
      "stateMutability": "view",
      "type": "function"
    },
    {
      "constant": true,
      "inputs": [],
      "name": "owner",
      "outputs": [
        {
          "internalType": "address",
          "name": "",
          "type": "address"
        }
      ],
      "payable": false,
      "stateMutability": "view",
      "type": "function"
    },
    {
      "constant": true,
      "inputs": [
        {
          "internalType": "bytes4",
          "name": "_interfaceId",
          "type": "bytes4"
        }
      ],
      "name": "supportsInterface",
      "outputs": [
        {
          "internalType": "bool",
          "name": "",
          "type": "bool"
        }
      ],
      "payable": false,
      "stateMutability": "view",
      "type": "function"
    },
    {
      "constant": false,
      "inputs": [
        {
          "internalType": "address",
          "name": "_from",
          "type": "address"
        },
        {
          "internalType": "address",
          "name": "_to",
          "type": "address"
        },
        {
          "internalType": "uint256",
          "name": "_tokenId",
          "type": "uint256"
        }
      ],
      "name": "transferFrom",
      "outputs": [],
      "payable": false,
      "stateMutability": "nonpayable",
      "type": "function"
    },
    {
      "constant": false,
      "inputs": [
        {
          "internalType": "address",
          "name": "_from",
          "type": "address"
        },
        {
          "internalType": "address",
          "name": "_to",
          "type": "address"
        },
        {
          "internalType": "uint256",
          "name": "_tokenId",
          "type": "uint256"
        }
      ],
      "name": "safeTransferFrom",
      "outputs": [],
      "payable": false,
      "stateMutability": "nonpayable",
      "type": "function"
    },
    {
      "constant": false,
      "inputs": [
        {
          "internalType": "address",
          "name": "_from",
          "type": "address"
        },
        {
          "internalType": "address",
          "name": "_to",
          "type": "address"
        },
        {
          "internalType": "uint256",
          "name": "_tokenId",
          "type": "uint256"
        },
        {
          "internalType": "bytes",
          "name": "_data",
          "type": "bytes"
        }
      ],
      "name": "safeTransferFrom",
      "outputs": [],
      "payable": false,
      "stateMutability": "nonpayable",
      "type": "function"
    },
    {
      "constant": false,
      "inputs": [
        {
          "internalType": "address",
          "name": "_approved",
          "type": "address"
        },
        {
          "internalType": "uint256",
          "name": "_tokenId",
          "type": "uint256"
        }
      ],
      "name": "approve",
      "outputs": [],
      "payable": false,
      "stateMutability": "nonpayable",
      "type": "function"
    },
    {
      "constant": false,
      "inputs": [
        {
          "internalType": "address",
          "name": "_operator",
          "type": "address"
        },
        {
          "internalType": "bool",
          "name": "_approved",
          "type": "bool"
        }
      ],
      "name": "setApprovalForAll",
      "outputs": [],
      "payable": false,
      "stateMutability": "nonpayable",
      "type": "function"
    },
    {
      "constant": true,
      "inputs": [
        {
          "internalType": "uint256",
          "name": "_tokenId",
          "type": "uint256"
        }
      ],
      "name": "getApproved",
      "outputs": [
        {
          "internalType": "address",
          "name": "",
          "type": "address"
        }
      ],
      "payable": false,
      "stateMutability": "view",
      "type": "function"
    },
    {
      "constant": true,
      "inputs": [
        {
          "internalType": "address",
          "name": "_owner",
          "type": "address"
        },
        {
          "internalType": "address",
          "name": "_operator",
          "type": "address"
        }
      ],
      "name": "isApprovedForAll",
      "outputs": [
        {
          "internalType": "bool",
          "name": "",
          "type": "bool"
        }
      ],
      "payable": false,
      "stateMutability": "view",
      "type": "function"
    },
    {
      "constant": false,
      "inputs": [
        {
          "internalType": "uint256",
          "name": "_genes",
          "type": "uint256"
        }
      ],
      "name": "createKittyGen0",
      "outputs": [
        {
          "internalType": "uint256",
          "name": "",
          "type": "uint256"
        }
      ],
      "payable": false,
      "stateMutability": "nonpayable",
      "type": "function"
    },
    {
      "constant": false,
      "inputs": [
        {
          "internalType": "address",
          "name": "to",
          "type": "address"
        },
        {
          "internalType": "uint256",
          "name": "tokenId",
          "type": "uint256"
        }
      ],
      "name": "transfer",
      "outputs": [],
      "payable": false,
      "stateMutability": "nonpayable",
      "type": "function"
    },
    {
      "constant": true,
      "inputs": [
        {
          "internalType": "address",
          "name": "owner",
          "type": "address"
        }
      ],
      "name": "getOwnedIds",
      "outputs": [
        {
          "internalType": "uint256[]",
          "name": "",
          "type": "uint256[]"
        }
      ],
      "payable": false,
      "stateMutability": "view",
      "type": "function"
    },
    {
      "constant": true,
      "inputs": [
        {
          "internalType": "uint256",
          "name": "tokenId",
          "type": "uint256"
        }
      ],
      "name": "getKitty",
      "outputs": [
        {
          "internalType": "uint256",
          "name": "genes",
          "type": "uint256"
        },
        {
          "internalType": "uint256",
          "name": "birthTime",
          "type": "uint256"
        },
        {
          "internalType": "uint256",
          "name": "dadID",
          "type": "uint256"
        },
        {
          "internalType": "uint256",
          "name": "momID",
          "type": "uint256"
        },
        {
          "internalType": "uint256",
          "name": "generation",
          "type": "uint256"
        },
        {
          "internalType": "address",
          "name": "owner",
          "type": "address"
        }
      ],
      "payable": false,
      "stateMutability": "view",
      "type": "function"
    },
    {
      "constant": true,
      "inputs": [
        {
          "internalType": "address",
          "name": "owner",
          "type": "address"
        }
      ],
      "name": "balanceOf",
      "outputs": [
        {
          "internalType": "uint256",
          "name": "balance",
          "type": "uint256"
        }
      ],
      "payable": false,
      "stateMutability": "view",
      "type": "function"
    },
    {
      "constant": true,
      "inputs": [],
      "name": "totalSupply",
      "outputs": [
        {
          "internalType": "uint256",
          "name": "total",
          "type": "uint256"
        }
      ],
      "payable": false,
      "stateMutability": "view",
      "type": "function"
    },
    {
      "constant": true,
      "inputs": [],
      "name": "name",
      "outputs": [
        {
          "internalType": "string",
          "name": "tokenName",
          "type": "string"
        }
      ],
      "payable": false,
      "stateMutability": "view",
      "type": "function"
    },
    {
      "constant": true,
      "inputs": [],
      "name": "symbol",
      "outputs": [
        {
          "internalType": "string",
          "name": "tokenSymbol",
          "type": "string"
        }
      ],
      "payable": false,
      "stateMutability": "view",
      "type": "function"
    },
    {
      "constant": true,
      "inputs": [
        {
          "internalType": "uint256",
          "name": "tokenId",
          "type": "uint256"
        }
      ],
      "name": "ownerOf",
      "outputs": [
        {
          "internalType": "address",
          "name": "owner",
          "type": "address"
        }
      ],
      "payable": false,
      "stateMutability": "view",
      "type": "function"
    },
    {
      "constant": false,
      "inputs": [
        {
          "internalType": "uint256",
          "name": "_dadId",
          "type": "uint256"
        },
        {
          "internalType": "uint256",
          "name": "_momId",
          "type": "uint256"
        }
      ],
      "name": "breed",
      "outputs": [
        {
          "internalType": "uint256",
          "name": "",
          "type": "uint256"
        }
      ],
      "payable": false,
      "stateMutability": "nonpayable",
      "type": "function"
    }
  ],
  "bytecode": "0x60806040523480156200001157600080fd5b50336000806101000a81548173ffffffffffffffffffffffffffffffffffffffff021916908373ffffffffffffffffffffffffffffffffffffffff1602179055506200008a60008060007fffffffffffffffffffffffffffffffffffffffffffffffffffffffffffffffff60006200009160201b60201c565b50620003e1565b60006200009d620003b2565b6040518060a001604052808581526020014267ffffffffffffffff1681526020018763ffffffff1681526020018863ffffffff1681526020018661ffff168152509050600281908060018154018082558091505090600182039060005260206000209060050201600090919290919091506000820151816000015560208201518160010155604082015181600201556060820151816003015560808201518160040155505050600060016002805490500390507f0a5311bd2a6608f08a180df2ee7c5946819a649b204b554bb8e39825b2c50ad584828a8a89604051808673ffffffffffffffffffffffffffffffffffffffff1673ffffffffffffffffffffffffffffffffffffffff1681526020018581526020018481526020018381526020018281526020019550505050505060405180910390a1620001e760008583620001f560201b60201c565b809250505095945050505050565b816004600083815260200190815260200160002060006101000a81548173ffffffffffffffffffffffffffffffffffffffff021916908373ffffffffffffffffffffffffffffffffffffffff160217905550600360008373ffffffffffffffffffffffffffffffffffffffff1673ffffffffffffffffffffffffffffffffffffffff16815260200190815260200160002060008154809291906001019190505550600073ffffffffffffffffffffffffffffffffffffffff168373ffffffffffffffffffffffffffffffffffffffff16146200035257600360008473ffffffffffffffffffffffffffffffffffffffff1673ffffffffffffffffffffffffffffffffffffffff16815260200190815260200160002060008154809291906001900391905055506005600082815260200190815260200160002060006101000a81549073ffffffffffffffffffffffffffffffffffffffff02191690555b808273ffffffffffffffffffffffffffffffffffffffff168473ffffffffffffffffffffffffffffffffffffffff167fddf252ad1be2c89b69c2b068fc378daa952ba7f163c4a11628f55a4df523b3ef60405160405180910390a4505050565b6040518060a0016040528060008152602001600081526020016000815260200160008152602001600081525090565b61236880620003f16000396000f3fe608060405234801561001057600080fd5b50600436106101425760003560e01c80638da5cb5b116100b8578063d5a776ca1161007c578063d5a776ca146107a5578063d9ecad7b146107e7578063e985e9c514610833578063e98b7f4d146108af578063eec1cbb714610940578063ef5e94aa146109d957610142565b80638da5cb5b1461057757806395d89b41146105c1578063a22cb46514610644578063a9059cbb14610694578063b88d4fde146106e257610142565b806323b872dd1161010a57806323b872dd1461030957806342842e0e146103775780636352211e146103e557806370a082311461045357806375ad5f3f146104ab5780638cc51eda1461051957610142565b806301ffc9a71461014757806306fdde03146101ac578063081812fc1461022f578063095ea7b31461029d57806318160ddd146102eb575b600080fd5b6101926004803603602081101561015d57600080fd5b8101908080357bffffffffffffffffffffffffffffffffffffffffffffffffffffffff191690602001909291905050506109f7565b604051808215151515815260200191505060405180910390f35b6101b4610a97565b6040518080602001828103825283818151815260200191508051906020019080838360005b838110156101f45780820151818401526020810190506101d9565b50505050905090810190601f1680156102215780820380516001836020036101000a031916815260200191505b509250505060405180910390f35b61025b6004803603602081101561024557600080fd5b8101908080359060200190929190505050610ad4565b604051808273ffffffffffffffffffffffffffffffffffffffff1673ffffffffffffffffffffffffffffffffffffffff16815260200191505060405180910390f35b6102e9600480360360408110156102b357600080fd5b81019080803573ffffffffffffffffffffffffffffffffffffffff16906020019092919080359060200190929190505050610b8b565b005b6102f3610c07565b6040518082815260200191505060405180910390f35b6103756004803603606081101561031f57600080fd5b81019080803573ffffffffffffffffffffffffffffffffffffffff169060200190929190803573ffffffffffffffffffffffffffffffffffffffff16906020019092919080359060200190929190505050610c14565b005b6103e36004803603606081101561038d57600080fd5b81019080803573ffffffffffffffffffffffffffffffffffffffff169060200190929190803573ffffffffffffffffffffffffffffffffffffffff16906020019092919080359060200190929190505050610c39565b005b610411600480360360208110156103fb57600080fd5b8101908080359060200190929190505050610c6e565b604051808273ffffffffffffffffffffffffffffffffffffffff1673ffffffffffffffffffffffffffffffffffffffff16815260200191505060405180910390f35b6104956004803603602081101561046957600080fd5b81019080803573ffffffffffffffffffffffffffffffffffffffff169060200190929190505050610d33565b6040518082815260200191505060405180910390f35b6104d7600480360360208110156104c157600080fd5b8101908080359060200190929190505050610d7c565b604051808273ffffffffffffffffffffffffffffffffffffffff1673ffffffffffffffffffffffffffffffffffffffff16815260200191505060405180910390f35b6105456004803603602081101561052f57600080fd5b8101908080359060200190929190505050610daf565b604051808681526020018581526020018481526020018381526020018281526020019550505050505060405180910390f35b61057f610df2565b604051808273ffffffffffffffffffffffffffffffffffffffff1673ffffffffffffffffffffffffffffffffffffffff16815260200191505060405180910390f35b6105c9610e17565b6040518080602001828103825283818151815260200191508051906020019080838360005b838110156106095780820151818401526020810190506105ee565b50505050905090810190601f1680156106365780820380516001836020036101000a031916815260200191505b509250505060405180910390f35b6106926004803603604081101561065a57600080fd5b81019080803573ffffffffffffffffffffffffffffffffffffffff169060200190929190803515159060200190929190505050610e54565b005b6106e0600480360360408110156106aa57600080fd5b81019080803573ffffffffffffffffffffffffffffffffffffffff16906020019092919080359060200190929190505050610fda565b005b6107a3600480360360808110156106f857600080fd5b81019080803573ffffffffffffffffffffffffffffffffffffffff169060200190929190803573ffffffffffffffffffffffffffffffffffffffff169060200190929190803590602001909291908035906020019064010000000081111561075f57600080fd5b82018360208201111561077157600080fd5b8035906020019184600183028401116401000000008311171561079357600080fd5b90919293919293905050506111c8565b005b6107d1600480360360208110156107bb57600080fd5b8101908080359060200190929190505050611234565b6040518082815260200191505060405180910390f35b61081d600480360360408110156107fd57600080fd5b810190808035906020019092919080359060200190929190505050611333565b6040518082815260200191505060405180910390f35b6108956004803603604081101561084957600080fd5b81019080803573ffffffffffffffffffffffffffffffffffffffff169060200190929190803573ffffffffffffffffffffffffffffffffffffffff169060200190929190505050611485565b604051808215151515815260200191505060405180910390f35b6108db600480360360208110156108c557600080fd5b8101908080359060200190929190505050611519565b604051808781526020018681526020018581526020018481526020018381526020018273ffffffffffffffffffffffffffffffffffffffff1673ffffffffffffffffffffffffffffffffffffffff168152602001965050505050505060405180910390f35b6109826004803603602081101561095657600080fd5b81019080803573ffffffffffffffffffffffffffffffffffffffff169060200190929190505050611606565b6040518080602001828103825283818151815260200191508051906020019060200280838360005b838110156109c55780820151818401526020810190506109aa565b505050509050019250505060405180910390f35b6109e1611703565b6040518082815260200191505060405180910390f35b60006380ac58cd60e01b7bffffffffffffffffffffffffffffffffffffffffffffffffffffffff1916827bffffffffffffffffffffffffffffffffffffffffffffffffffffffff19161480610a9057506301ffc9a760e01b7bffffffffffffffffffffffffffffffffffffffffffffffffffffffff1916827bffffffffffffffffffffffffffffffffffffffffffffffffffffffff1916145b9050919050565b60606040518060400160405280600a81526020017f4b6974747920436f696e00000000000000000000000000000000000000000000815250905090565b60006002805490508210610b50576040517f08c379a000000000000000000000000000000000000000000000000000000000815260040180806020018281038252601d8152602001807f5468617420746f6b656e20646f65736e27742065786973742c2062726f00000081525060200191505060405180910390fd5b6005600083815260200190815260200160002060009054906101000a900473ffffffffffffffffffffffffffffffffffffffff169050919050565b610b953382611709565b610b9e57600080fd5b610ba88282611775565b808273ffffffffffffffffffffffffffffffffffffffff163373ffffffffffffffffffffffffffffffffffffffff167f8c5be1e5ebec7d5bd14f71427d1e84f3dd0314c0f7b2291e5b200ac8c7c3b92560405160405180910390a45050565b6000600280549050905090565b610c20338484846117cb565b610c2957600080fd5b610c34838383611987565b505050565b610c45338484846117cb565b610c4e57600080fd5b610c6983838360405180602001604052806000815250611b43565b505050565b60008160028054905010158015610c86575060008214155b610cf8576040517f08c379a00000000000000000000000000000000000000000000000000000000081526004018080602001828103825260198152602001807f5468697320746f6b656e20646f6573206e6f742065786973740000000000000081525060200191505060405180910390fd5b6004600083815260200190815260200160002060009054906101000a900473ffffffffffffffffffffffffffffffffffffffff169050919050565b6000600360008373ffffffffffffffffffffffffffffffffffffffff1673ffffffffffffffffffffffffffffffffffffffff168152602001908152602001600020549050919050565b60056020528060005260406000206000915054906101000a900473ffffffffffffffffffffffffffffffffffffffff1681565b60028181548110610dbc57fe5b90600052602060002090600502016000915090508060000154908060010154908060020154908060030154908060040154905085565b6000809054906101000a900473ffffffffffffffffffffffffffffffffffffffff1681565b60606040518060400160405280600381526020017f4b54430000000000000000000000000000000000000000000000000000000000815250905090565b3373ffffffffffffffffffffffffffffffffffffffff168273ffffffffffffffffffffffffffffffffffffffff161415610ed9576040517f08c379a000000000000000000000000000000000000000000000000000000000815260040180806020018281038252603e815260200180612279603e913960400191505060405180910390fd5b80600660003373ffffffffffffffffffffffffffffffffffffffff1673ffffffffffffffffffffffffffffffffffffffff16815260200190815260200160002060008473ffffffffffffffffffffffffffffffffffffffff1673ffffffffffffffffffffffffffffffffffffffff16815260200190815260200160002060006101000a81548160ff0219169083151502179055508173ffffffffffffffffffffffffffffffffffffffff163373ffffffffffffffffffffffffffffffffffffffff167f17307eab39ab6107e8899845ad3d59bd9653f200f220920489ca2b5937696c3183604051808215151515815260200191505060405180910390a35050565b600073ffffffffffffffffffffffffffffffffffffffff168273ffffffffffffffffffffffffffffffffffffffff161415611060576040517f08c379a000000000000000000000000000000000000000000000000000000000815260040180806020018281038252602c8152602001806122b7602c913960400191505060405180910390fd5b3073ffffffffffffffffffffffffffffffffffffffff168273ffffffffffffffffffffffffffffffffffffffff1614156110e5576040517f08c379a000000000000000000000000000000000000000000000000000000000815260040180806020018281038252602581526020018061230f6025913960400191505060405180910390fd5b3373ffffffffffffffffffffffffffffffffffffffff166004600083815260200190815260200160002060009054906101000a900473ffffffffffffffffffffffffffffffffffffffff1673ffffffffffffffffffffffffffffffffffffffff16146111b9576040517f08c379a000000000000000000000000000000000000000000000000000000000815260040180806020018281038252601b8152602001807f53656e64657220646f6573206e6f74206f776e20746f6b656e4964000000000081525060200191505060405180910390fd5b6111c4338383611987565b5050565b6111d4338686866117cb565b6111dd57600080fd5b61122d85858585858080601f016020809104026020016040519081016040528093929190818152602001838380828437600081840152601f19601f82011690508083019250505050505050611b43565b5050505050565b60008060009054906101000a900473ffffffffffffffffffffffffffffffffffffffff1673ffffffffffffffffffffffffffffffffffffffff163373ffffffffffffffffffffffffffffffffffffffff161461128f57600080fd5b600a61ffff166001541061130b576040517f08c379a000000000000000000000000000000000000000000000000000000000815260040180806020018281038252601d8152602001807f5468652067617264656e206f66206564656e2068617320636c6f73656400000081525060200191505060405180910390fd5b60016000815480929190600101919050555061132c60008060008533611b69565b9050919050565b60008183141561138e576040517f08c379a00000000000000000000000000000000000000000000000000000000081526004018080602001828103825260338152602001806122466033913960400191505060405180910390fd5b6113983384611709565b80156113aa57506113a93383611709565b5b6113ff576040517f08c379a000000000000000000000000000000000000000000000000000000000815260040180806020018281038252602c8152602001806122e3602c913960400191505060405180910390fd5b60006114476002858154811061141157fe5b9060005260206000209060050201600001546002858154811061143057fe5b906000526020600020906005020160000154611cc3565b9050600060016002858154811061145a57fe5b90600052602060002090600502016004015401905061147c8486838533611b69565b50505092915050565b6000600660008473ffffffffffffffffffffffffffffffffffffffff1673ffffffffffffffffffffffffffffffffffffffff16815260200190815260200160002060008373ffffffffffffffffffffffffffffffffffffffff1673ffffffffffffffffffffffffffffffffffffffff16815260200190815260200160002060009054906101000a900460ff16905092915050565b6000806000806000806002878154811061152f57fe5b90600052602060002090600502016000015495506002878154811061155057fe5b90600052602060002090600502016001015494506002878154811061157157fe5b90600052602060002090600502016002015493506002878154811061159257fe5b9060005260206000209060050201600301549250600287815481106115b357fe5b90600052602060002090600502016004015491506004600088815260200190815260200160002060009054906101000a900473ffffffffffffffffffffffffffffffffffffffff16905091939550919395565b6060600061161383611ec7565b90506060816040519080825280602002602001820160405280156116465781602001602082028038833980820191505090505b509050600080905060008090505b6002805490508110156116f7578573ffffffffffffffffffffffffffffffffffffffff166004600083815260200190815260200160002060009054906101000a900473ffffffffffffffffffffffffffffffffffffffff1673ffffffffffffffffffffffffffffffffffffffff1614156116ea57808383815181106116d557fe5b60200260200101818152505081806001019250505b8080600101915050611654565b50819350505050919050565b60015481565b60008273ffffffffffffffffffffffffffffffffffffffff166004600084815260200190815260200160002060009054906101000a900473ffffffffffffffffffffffffffffffffffffffff1673ffffffffffffffffffffffffffffffffffffffff1614905092915050565b816005600083815260200190815260200160002060006101000a81548173ffffffffffffffffffffffffffffffffffffffff021916908373ffffffffffffffffffffffffffffffffffffffff1602179055505050565b6000600280549050821061182a576040517f08c379a00000000000000000000000000000000000000000000000000000000081526004018080602001828103825260418152602001806121d66041913960600191505060405180910390fd5b600073ffffffffffffffffffffffffffffffffffffffff168373ffffffffffffffffffffffffffffffffffffffff1614156118b0576040517f08c379a000000000000000000000000000000000000000000000000000000000815260040180806020018281038252602d8152602001806121a9602d913960400191505060405180910390fd5b6118ba8483611709565b61192c576040517f08c379a000000000000000000000000000000000000000000000000000000000815260040180806020018281038252601f8152602001807f546869732067757920646f65736e2774206f776e207468617420746f6b656e0081525060200191505060405180910390fd5b8373ffffffffffffffffffffffffffffffffffffffff168573ffffffffffffffffffffffffffffffffffffffff16148061196c575061196b8583611f10565b5b8061197d575061197c8486611485565b5b9050949350505050565b816004600083815260200190815260200160002060006101000a81548173ffffffffffffffffffffffffffffffffffffffff021916908373ffffffffffffffffffffffffffffffffffffffff160217905550600360008373ffffffffffffffffffffffffffffffffffffffff1673ffffffffffffffffffffffffffffffffffffffff16815260200190815260200160002060008154809291906001019190505550600073ffffffffffffffffffffffffffffffffffffffff168373ffffffffffffffffffffffffffffffffffffffff1614611ae357600360008473ffffffffffffffffffffffffffffffffffffffff1673ffffffffffffffffffffffffffffffffffffffff16815260200190815260200160002060008154809291906001900391905055506005600082815260200190815260200160002060006101000a81549073ffffffffffffffffffffffffffffffffffffffff02191690555b808273ffffffffffffffffffffffffffffffffffffffff168473ffffffffffffffffffffffffffffffffffffffff167fddf252ad1be2c89b69c2b068fc378daa952ba7f163c4a11628f55a4df523b3ef60405160405180910390a4505050565b611b4e848484611987565b611b5a84848484611f7c565b611b6357600080fd5b50505050565b6000611b73612179565b6040518060a001604052808581526020014267ffffffffffffffff1681526020018763ffffffff1681526020018863ffffffff1681526020018661ffff168152509050600281908060018154018082558091505090600182039060005260206000209060050201600090919290919091506000820151816000015560208201518160010155604082015181600201556060820151816003015560808201518160040155505050600060016002805490500390507f0a5311bd2a6608f08a180df2ee7c5946819a649b204b554bb8e39825b2c50ad584828a8a89604051808673ffffffffffffffffffffffffffffffffffffffff1673ffffffffffffffffffffffffffffffffffffffff1681526020018581526020018481526020018381526020018281526020019550505050505060405180910390a1611cb560008583611987565b809250505095945050505050565b600080429050600060088281611cd557fe5b069050600080600090505b6009811015611eba578281148015611cf85750600783105b15611d2557600081600202601003600a0a600a60598781611d1557fe5b0601029050808301925050611ead565b8281148015611d345750600683115b15611d6157600081600202601003600a0a600160058781611d5157fe5b0601029050808301925050611eac565b80600a0a8481611d6d57fe5b0493506000600a8581611d7c57fe5b0690506000821415611df657600060028281611d9457fe5b061415611dc857600082600202601003600a0a8981611daf57fe5b04905082600202601003600a0a81028401935050611df1565b600082600202601003600a0a8881611ddc57fe5b04905082600202601003600a0a810284019350505b611eaa565b600060028281611e0257fe5b061415611e5b57600082600202601003600a0a8981611e1d57fe5b04905082600202601003600a0a8102905082600202601203600a0a83600202601203600a0a8a81611e4a57fe5b040281039050808401935050611ea9565b600082600202601003600a0a8881611e6f57fe5b04905082600202601003600a0a8102905082600202601203600a0a83600202601203600a0a8981611e9c57fe5b0402810390508084019350505b5b505b5b8080600101915050611ce0565b5080935050505092915050565b6000600360008373ffffffffffffffffffffffffffffffffffffffff1673ffffffffffffffffffffffffffffffffffffffff168152602001908152602001600020549050919050565b60008273ffffffffffffffffffffffffffffffffffffffff166005600084815260200190815260200160002060009054906101000a900473ffffffffffffffffffffffffffffffffffffffff1673ffffffffffffffffffffffffffffffffffffffff1614905092915050565b6000611f8784612160565b611f945760019050612158565b60008473ffffffffffffffffffffffffffffffffffffffff1663150b7a02338887876040518563ffffffff1660e01b8152600401808573ffffffffffffffffffffffffffffffffffffffff1673ffffffffffffffffffffffffffffffffffffffff1681526020018473ffffffffffffffffffffffffffffffffffffffff1673ffffffffffffffffffffffffffffffffffffffff16815260200183815260200180602001828103825283818151815260200191508051906020019080838360005b8381101561206f578082015181840152602081019050612054565b50505050905090810190601f16801561209c5780820380516001836020036101000a031916815260200191505b5095505050505050602060405180830381600087803b1580156120be57600080fd5b505af11580156120d2573d6000803e3d6000fd5b505050506040513d60208110156120e857600080fd5b810190808051906020019092919050505090506040518080612217602f9139602f01905060405180910390207bffffffffffffffffffffffffffffffffffffffffffffffffffffffff1916817bffffffffffffffffffffffffffffffffffffffffffffffffffffffff1916149150505b949350505050565b600080823b905060008163ffffffff1611915050919050565b6040518060a001604052806000815260200160008152602001600081526020016000815260200160008152509056fe446f6e27742073656e6420746861742063617420696e746f20746865206f626c6976696f6e2c20706c65617365546861742063617420646f65736e2774206578697374207965742e2e2e2044696420796f7520636f6d6520686572652066726f6d20746865206675747572653f216f6e455243373231526563656976656428616464726573732c616464726573732c75696e743235362c627974657329546861742773206e6f7420686f7720697420776f726b732e20436f6e73756c74206120736369656e63652074657874626f6f6b5768792061726520796f752064696e6720746869733f2020596f7520616c726561647920686176652061636365737320746f20796f757220746f6b656e73446f6e27742073656e6420796f757220746f6b656e20696e746f2074686520656e646c657373206162797373596f752068617665206e6f20726967687420746f20666f726365206272656564207468657365206361747321446f6e27742073656e6420796f757220746f6b656e20746f20746869732061646472657373a265627a7a72315820f2fc8c21b1308fbf0611e690c814b3b9efbdb10cbf06f90e662ea3908465508564736f6c634300050c0032",
  "source": "pragma solidity ^0.5.12;\r\nimport \"./IERC721.sol\";\r\nimport \"./Ownable.sol\";\r\nimport \"./IERC721Receiver.sol\";\r\n\r\ncontract Kittycontract is IERC721, Ownable{\r\n\r\n    event Transfer(address indexed from, address indexed to, uint256 indexed tokenId);\r\n    event Birth(address owner, uint256 kittenId, uint256 momId, uint256 dadId, uint256 genes);\r\n    event ApprovalForAll(address indexed owner, address indexed operator, bool approved);\r\n    event Approval(address indexed owner, address indexed approved, uint256 indexed tokenId);\r\n\r\n    bytes4 private constant _INTERFACE_ID_ERC721 = 0x80ac58cd;\r\n    bytes4 private constant _INTERFACE_ID_ERC165 = 0x01ffc9a7;\r\n\r\n    uint16 private constant gen0Limit = 10;\r\n    string private constant _name= \"Kitty Coin\";\r\n    string private constant _symbol = \"KTC\";\r\n    uint256 public gen0Counter;\r\n    bytes4 internal constant MAGIC_ERC721_RECEIVED = bytes4(keccak256(\"onERC721Received(address,address,uint256,bytes)\"));\r\n    \r\n    //kitty gender?\r\n    struct Kitty{\r\n        uint256 genes;\r\n        uint256 birthTime;\r\n        uint256 dadID;\r\n        uint256 momID;\r\n        uint256 generation;\r\n    }\r\n    \r\n    Kitty[] public kitties;    //is this set as private by default if I don't use public?\r\n\r\n    mapping(address=>uint256) private _ownersTokenBalance;    //each address's token balance\r\n    mapping(uint256 =>address) private _tokenOwner; //tokenID equal to the number of tokens when kitty created maps to each owner\r\n    //approval to transfer one of my tokens\r\n    mapping(uint256 => address) public kittyIndexApproved;    \r\n\r\n    //approval for all the tokens owned by an address\r\n    mapping(address =>mapping(address=>bool)) private _operatorApprovals;  //first input is the token owner's address\r\n\r\n\r\n\r\n    constructor() public{\r\n        _createKitty(0,0,0,uint(-1), address(0));\r\n    }\r\n    function supportsInterface(bytes4 _interfaceId) external view returns(bool){\r\n        return (_interfaceId == _INTERFACE_ID_ERC721 || _interfaceId ==_INTERFACE_ID_ERC165);\r\n    }\r\n\r\n    function _isApprovedOrOwner(address _spender, address _from, address _to, uint256 _tokenId) internal view returns(bool){\r\n        require(_tokenId<kitties.length,\"That cat doesn't exist yet... Did you come here from the future?!\");\r\n        require(_to != address(0), \"Don't send that cat into the oblivion, please\");\r\n        require(_owns(_from, _tokenId), \"This guy doesn't own that token\");\r\n        //spender is from OR spender is approved OR spender is operator for from\r\n        return (_spender == _from \r\n        || _approvedFor(_spender, _tokenId)\r\n        || isApprovedForAll(_from, _spender));\r\n    }\r\n\r\n\r\n    function transferFrom(address _from, address _to, uint256 _tokenId) external{\r\n        //does this fit here?\r\n        require(_isApprovedOrOwner(msg.sender, _from, _to, _tokenId));\r\n        _transfer(_from, _to, _tokenId);\r\n   }\r\n\r\n    function safeTransferFrom(address _from, address _to, uint256 _tokenId, bytes calldata _data) external{\r\n        require(_isApprovedOrOwner(msg.sender, _from, _to, _tokenId));\r\n        _safeTransfer(_from, _to, _tokenId, _data);\r\n    }\r\n\r\n    function safeTransferFrom(address _from, address _to, uint256 _tokenId) external{\r\n        require(_isApprovedOrOwner(msg.sender, _from, _to, _tokenId));\r\n        _safeTransfer(_from, _to, _tokenId, \"\");\r\n\r\n    }\r\n\r\n\r\n    function _safeTransfer(address _from, address _to, uint256 _tokenId, bytes memory _data) internal {\r\n        _transfer(_from, _to, _tokenId);\r\n        //why does the require come after?\r\n        require(_checkERC721Support(_from, _to, _tokenId, _data));\r\n    }\r\n\r\n    function approve(address _approved, uint256 _tokenId) public{\r\n        require(_owns(msg.sender, _tokenId));\r\n        _approve(_approved, _tokenId);\r\n        emit Approval(msg.sender, _approved, _tokenId);\r\n    }\r\n\r\n    function setApprovalForAll(address _operator, bool _approved) external{\r\n        require(_operator !=msg.sender, \"Why are you ding this?  You already have access to your tokens\");\r\n        _operatorApprovals[msg.sender][_operator]=_approved;\r\n        emit ApprovalForAll(msg.sender, _operator, _approved);\r\n    }\r\n\r\n    function getApproved(uint256 _tokenId) external view returns (address){\r\n        require(_tokenId<kitties.length, \"That token doesn't exist, bro\");\r\n        \r\n        return kittyIndexApproved[_tokenId];\r\n    }\r\n\r\n    function isApprovedForAll(address _owner, address _operator) public view returns (bool){\r\n        return _operatorApprovals[_owner][_operator];\r\n    }\r\n\r\n    function createKittyGen0(uint256 _genes) public onlyOwner returns(uint256){\r\n    require(gen0Counter<gen0Limit, \"The garden of eden has closed\");\r\n    gen0Counter ++;\r\n    return _createKitty(0, 0, 0, _genes, msg.sender);\r\n    }\r\n\r\n    function transfer(address to, uint256 tokenId) external{\r\n        require(to != address(0), \"Don't send your token into the endless abyss\");\r\n        require(to != address(this), \"Don't send your token to this address\");\r\n        require(_tokenOwner[tokenId]==msg.sender, \"Sender does not own tokenId\");\r\n        \r\n        _transfer(msg.sender, to, tokenId);\r\n    }\r\n\r\n    function getOwnedIds(address owner) public view returns(uint256[] memory){\r\n        //do I need this internal balanceOf?\r\n        uint256 arrayLength = _balanceOf(owner);\r\n        uint[] memory c = new uint[](arrayLength);\r\n        uint256 cIndex = 0;\r\n            for(uint256 i = 0; i<kitties.length; i++){\r\n                if(_tokenOwner[i]==owner){\r\n                c[cIndex]= i;\r\n                cIndex++;\r\n                }\r\n            }\r\n        return c;\r\n    }\r\n\r\n    function getKitty(uint256 tokenId) public view returns(\r\n    uint256 genes, \r\n    uint256 birthTime, \r\n    uint256 dadID, \r\n    uint256 momID, \r\n    uint256 generation,\r\n    address owner){\r\n   \r\n    genes = kitties[tokenId].genes;\r\n    birthTime = kitties[tokenId].birthTime;\r\n    dadID = kitties[tokenId].dadID;\r\n    momID = kitties[tokenId].momID;\r\n    generation = kitties[tokenId].generation;\r\n    owner = _tokenOwner[tokenId];\r\n    }\r\n\r\n    \r\n    function balanceOf(address owner) external view returns (uint256 balance){\r\n        balance = _ownersTokenBalance[owner];\r\n    }\r\n\r\n    function totalSupply() external view returns (uint256 total){\r\n        total = kitties.length;\r\n    }\r\n\r\n    function name() external view returns (string memory tokenName){\r\n        tokenName = _name;\r\n    }\r\n\r\n    function symbol() external view returns (string memory tokenSymbol){\r\n        tokenSymbol= _symbol;\r\n    }\r\n\r\n    function ownerOf(uint256 tokenId) external view returns (address owner){\r\n        require(kitties.length>=tokenId && tokenId!=0, \"This token does not exist\");\r\n        owner = _tokenOwner[tokenId];\r\n    }\r\n\r\n    function _transfer(address from, address to, uint256 tokenId) internal{\r\n        _tokenOwner[tokenId]= to;\r\n        _ownersTokenBalance[to]++;\r\n        if(from!=address(0)) {\r\n            _ownersTokenBalance[from]--;\r\n            delete kittyIndexApproved[tokenId];\r\n        }\r\n\r\n            emit Transfer(from, to, tokenId);\r\n    }\r\n\r\n    function _balanceOf(address owner) internal view returns (uint256 balance){\r\n        balance = _ownersTokenBalance[owner];\r\n    }\r\n\r\n    function breed(uint256 _dadId, uint256 _momId) public returns(uint256){\r\n        require(_dadId!=_momId, \"That's not how it works. Consult a science textbook\");\r\n        require(_owns(msg.sender, _dadId)&&_owns(msg.sender, _momId), \"You have no right to force breed these cats!\");\r\n        uint256 newDNA = _mixDNA(kitties[_dadId].genes, kitties[_momId].genes);\r\n        uint256 generation = kitties[_momId].generation+1;\r\n        _createKitty(_momId, _dadId, generation, newDNA, msg.sender);\r\n    }\r\n\r\n    function _createKitty(uint256 _momID, uint256 _dadID, uint256 _generation, uint256 _genes, address _owner) internal \r\n    returns(uint256){\r\n    Kitty memory _kitty = Kitty({\r\n        genes: _genes, \r\n        birthTime: uint64(now),\r\n        momID: uint32(_momID),\r\n        dadID: uint32(_dadID),\r\n        generation: uint16(_generation)\r\n    });\r\n\r\n    kitties.push(_kitty); \r\n    uint256 newKittenId = kitties.length-1;\r\n    emit Birth(_owner, newKittenId, _momID, _dadID, _genes);\r\n    _transfer(address(0), _owner, newKittenId);\r\n\r\n    return newKittenId;\r\n    }\r\n\r\n    //does it cost more or less gas to use internal functions like _owns and _approve within external functions?\r\n    //I am not quite sure why we do this instead of simply writing require(_tokenOwner[_tokenId]==msg.sender); to check ownership\r\n    function _owns(address _claimant, uint256 _tokenId) internal view returns (bool){\r\n        return _tokenOwner[_tokenId]==_claimant;\r\n    }\r\n    function _approve(address _approved, uint256 _tokenId) internal{\r\n        kittyIndexApproved[_tokenId]=_approved;\r\n    }\r\n\r\n    function _approvedFor(address _claimant, uint256 _tokenId) internal view returns(bool){\r\n        return kittyIndexApproved[_tokenId] == _claimant;\r\n    }\r\n\r\n    function _checkERC721Support(address _from, address _to, uint256 _tokenId, bytes memory _data) internal returns(bool){\r\n        if(!_isContract(_to)){\r\n            return true;\r\n        }\r\n\r\n        //onERC721Recieved execution in the _to contract and check return value\r\n        bytes4 returnData = IERC721Receiver(_to).onERC721Received(msg.sender, _from, _tokenId, _data);\r\n        return returnData == MAGIC_ERC721_RECEIVED;\r\n    }\r\n\r\n    function _isContract(address _to) view internal returns(bool){\r\n        uint32 size;\r\n        assembly{\r\n            size:=extcodesize(_to)\r\n        }\r\n        return size>0;\r\n    }\r\n\r\n    function _mixDNA(uint _dadDna, uint _momDna) internal view returns(uint256){\r\n        uint randGenerator = block.timestamp;\r\n        uint fullRand = randGenerator%8;\r\n        uint newDNA;\r\n        for(uint i = 0; i<9; i++){\r\n            if(i==fullRand&&fullRand<7){\r\n                uint addedDna =((randGenerator%89+10)*(10**(16-(2*i))));\r\n                newDNA += addedDna;\r\n            }\r\n            else if (i==fullRand&&fullRand>6){\r\n                uint addedDna =((randGenerator%5+1)*(10**(16-(2*i))));\r\n                newDNA += addedDna;\r\n            }\r\n            else{\r\n            randGenerator /=(10**i);\r\n            uint randDigit = randGenerator%10;\r\n            \r\n            if(i==0){\r\n                if(randDigit%2 ==0) {\r\n                    uint addedDna = (_dadDna/(10**(16-(2*i))));\r\n                    newDNA += addedDna *(10**(16-(2*i)));\r\n                }\r\n                else {\r\n                    uint addedDna = (_momDna/(10**(16-(2*i))));\r\n                    newDNA += addedDna*(10**(16-(2*i)));\r\n                }\r\n            }\r\n            else{\r\n                if(randDigit%2 ==0){\r\n                    uint addedDna = _dadDna/(10**(16-(2*i)));\r\n                    addedDna *= (10**(16-(2*i)));\r\n                    addedDna -= _dadDna/(10**(18-(2*i)))*(10**(18-(2*i)));\r\n                    newDNA +=addedDna;\r\n                }\r\n                else{\r\n                    uint addedDna =_momDna/(10**(16-(2*i)));\r\n                    addedDna *= (10**(16-(2*i)));\r\n                    addedDna -=(_momDna/(10**(18-(2*i)))) * (10**(18-(2*i)));\r\n                    newDNA += addedDna;\r\n                }\r\n            }\r\n        }\r\n        }\r\n        return newDNA;\r\n    }\r\n}",
  "sourcePath": "C:\\Users\\yan\\Documents\\GitHub\\CryptoKitties\\contracts\\Kittycontract.sol",
  "compiler": {
    "name": "solc",
    "version": "0.5.12+commit.7709ece9.Emscripten.clang"
  },
  "schemaVersion": "3.2.0",
  "updatedAt": "2020-11-20T00:12:30.449Z",
  "networkType": "ethereum",
  "devdoc": {
    "methods": {}
  },
  "userdoc": {
    "methods": {}
  }
}