{
  "contractName": "Kittycontract",
  "abi": [
    {
      "anonymous": false,
      "inputs": [
        {
          "indexed": true,
          "internalType": "address",
          "name": "owner",
          "type": "address"
        },
        {
          "indexed": true,
          "internalType": "address",
          "name": "approved",
          "type": "address"
        },
        {
          "indexed": true,
          "internalType": "uint256",
          "name": "tokenId",
          "type": "uint256"
        }
      ],
      "name": "Approval",
      "type": "event"
    },
    {
      "anonymous": false,
      "inputs": [
        {
          "indexed": false,
          "internalType": "address",
          "name": "owner",
          "type": "address"
        },
        {
          "indexed": false,
          "internalType": "uint256",
          "name": "kittenId",
          "type": "uint256"
        },
        {
          "indexed": false,
          "internalType": "uint256",
          "name": "momId",
          "type": "uint256"
        },
        {
          "indexed": false,
          "internalType": "uint256",
          "name": "dadId",
          "type": "uint256"
        },
        {
          "indexed": false,
          "internalType": "uint256",
          "name": "genes",
          "type": "uint256"
        }
      ],
      "name": "Birth",
      "type": "event"
    },
    {
      "anonymous": false,
      "inputs": [
        {
          "indexed": true,
          "internalType": "address",
          "name": "from",
          "type": "address"
        },
        {
          "indexed": true,
          "internalType": "address",
          "name": "to",
          "type": "address"
        },
        {
          "indexed": true,
          "internalType": "uint256",
          "name": "tokenId",
          "type": "uint256"
        }
      ],
      "name": "Transfer",
      "type": "event"
    },
    {
      "constant": true,
      "inputs": [],
      "name": "gen0Counter",
      "outputs": [
        {
          "internalType": "uint16",
          "name": "",
          "type": "uint16"
        }
      ],
      "payable": false,
      "stateMutability": "view",
      "type": "function"
    },
    {
      "constant": true,
      "inputs": [],
      "name": "owner",
      "outputs": [
        {
          "internalType": "address",
          "name": "",
          "type": "address"
        }
      ],
      "payable": false,
      "stateMutability": "view",
      "type": "function"
    },
    {
      "constant": false,
      "inputs": [
        {
          "internalType": "uint256",
          "name": "_genes",
          "type": "uint256"
        }
      ],
      "name": "createKittyGen0",
      "outputs": [
        {
          "internalType": "uint256",
          "name": "",
          "type": "uint256"
        }
      ],
      "payable": false,
      "stateMutability": "nonpayable",
      "type": "function"
    },
    {
      "constant": true,
      "inputs": [
        {
          "internalType": "uint256",
          "name": "tokenId",
          "type": "uint256"
        }
      ],
      "name": "getKitty",
      "outputs": [
        {
          "internalType": "uint256",
          "name": "genes",
          "type": "uint256"
        },
        {
          "internalType": "uint256",
          "name": "birthTime",
          "type": "uint256"
        },
        {
          "internalType": "uint256",
          "name": "dadID",
          "type": "uint256"
        },
        {
          "internalType": "uint256",
          "name": "momID",
          "type": "uint256"
        },
        {
          "internalType": "uint256",
          "name": "generation",
          "type": "uint256"
        },
        {
          "internalType": "address",
          "name": "owner",
          "type": "address"
        }
      ],
      "payable": false,
      "stateMutability": "view",
      "type": "function"
    },
    {
      "constant": false,
      "inputs": [
        {
          "internalType": "uint256",
          "name": "_momID",
          "type": "uint256"
        },
        {
          "internalType": "uint256",
          "name": "_dadID",
          "type": "uint256"
        },
        {
          "internalType": "uint256",
          "name": "_generation",
          "type": "uint256"
        },
        {
          "internalType": "uint256",
          "name": "_genes",
          "type": "uint256"
        },
        {
          "internalType": "address",
          "name": "_owner",
          "type": "address"
        }
      ],
      "name": "_createKitty",
      "outputs": [
        {
          "internalType": "uint256",
          "name": "",
          "type": "uint256"
        }
      ],
      "payable": false,
      "stateMutability": "nonpayable",
      "type": "function"
    },
    {
      "constant": true,
      "inputs": [
        {
          "internalType": "address",
          "name": "owner",
          "type": "address"
        }
      ],
      "name": "balanceOf",
      "outputs": [
        {
          "internalType": "uint256",
          "name": "balance",
          "type": "uint256"
        }
      ],
      "payable": false,
      "stateMutability": "view",
      "type": "function"
    },
    {
      "constant": true,
      "inputs": [],
      "name": "totalSupply",
      "outputs": [
        {
          "internalType": "uint256",
          "name": "total",
          "type": "uint256"
        }
      ],
      "payable": false,
      "stateMutability": "view",
      "type": "function"
    },
    {
      "constant": true,
      "inputs": [],
      "name": "name",
      "outputs": [
        {
          "internalType": "string",
          "name": "tokenName",
          "type": "string"
        }
      ],
      "payable": false,
      "stateMutability": "view",
      "type": "function"
    },
    {
      "constant": true,
      "inputs": [],
      "name": "symbol",
      "outputs": [
        {
          "internalType": "string",
          "name": "tokenSymbol",
          "type": "string"
        }
      ],
      "payable": false,
      "stateMutability": "view",
      "type": "function"
    },
    {
      "constant": true,
      "inputs": [
        {
          "internalType": "uint256",
          "name": "tokenId",
          "type": "uint256"
        }
      ],
      "name": "ownerOf",
      "outputs": [
        {
          "internalType": "address",
          "name": "owner",
          "type": "address"
        }
      ],
      "payable": false,
      "stateMutability": "view",
      "type": "function"
    },
    {
      "constant": true,
      "inputs": [
        {
          "internalType": "uint256[]",
          "name": "array",
          "type": "uint256[]"
        },
        {
          "internalType": "uint256",
          "name": "value",
          "type": "uint256"
        }
      ],
      "name": "arrayContains",
      "outputs": [
        {
          "internalType": "bool",
          "name": "",
          "type": "bool"
        }
      ],
      "payable": false,
      "stateMutability": "pure",
      "type": "function"
    },
    {
      "constant": true,
      "inputs": [
        {
          "internalType": "uint256[]",
          "name": "array",
          "type": "uint256[]"
        },
        {
          "internalType": "uint256",
          "name": "value",
          "type": "uint256"
        }
      ],
      "name": "valueArrayIndex",
      "outputs": [
        {
          "internalType": "uint256",
          "name": "",
          "type": "uint256"
        }
      ],
      "payable": false,
      "stateMutability": "pure",
      "type": "function"
    },
    {
      "constant": false,
      "inputs": [
        {
          "internalType": "address",
          "name": "to",
          "type": "address"
        },
        {
          "internalType": "uint256",
          "name": "tokenId",
          "type": "uint256"
        }
      ],
      "name": "transfer",
      "outputs": [],
      "payable": false,
      "stateMutability": "nonpayable",
      "type": "function"
    }
  ],
  "bytecode": "0x6080604052336000806101000a81548173ffffffffffffffffffffffffffffffffffffffff021916908373ffffffffffffffffffffffffffffffffffffffff160217905550611265806100536000396000f3fe608060405234801561001057600080fd5b50600436106100cf5760003560e01c806370a082311161008c578063a9059cbb11610066578063a9059cbb14610538578063d5a776ca14610586578063e98b7f4d146105c8578063ef5e94aa14610659576100cf565b806370a08231146104135780638da5cb5b1461046b57806395d89b41146104b5576100cf565b806306fdde03146100d45780630957feff1461015757806317b2c40d1461022d57806318160ddd14610307578063338a63a4146103255780636352211e146103a5575b600080fd5b6100dc61067f565b6040518080602001828103825283818151815260200191508051906020019080838360005b8381101561011c578082015181840152602081019050610101565b50505050905090810190601f1680156101495780820380516001836020036101000a031916815260200191505b509250505060405180910390f35b6102176004803603604081101561016d57600080fd5b810190808035906020019064010000000081111561018a57600080fd5b82018360208201111561019c57600080fd5b803590602001918460208302840111640100000000831117156101be57600080fd5b919080806020026020016040519081016040528093929190818152602001838360200280828437600081840152601f19601f820116905080830192505050505050509192919290803590602001909291905050506106bc565b6040518082815260200191505060405180910390f35b6102ed6004803603604081101561024357600080fd5b810190808035906020019064010000000081111561026057600080fd5b82018360208201111561027257600080fd5b8035906020019184602083028401116401000000008311171561029457600080fd5b919080806020026020016040519081016040528093929190818152602001838360200280828437600081840152601f19601f8201169050808301925050505050505091929192908035906020019092919050505061071d565b604051808215151515815260200191505060405180910390f35b61030f610782565b6040518082815260200191505060405180910390f35b61038f600480360360a081101561033b57600080fd5b8101908080359060200190929190803590602001909291908035906020019092919080359060200190929190803573ffffffffffffffffffffffffffffffffffffffff16906020019092919050505061078f565b6040518082815260200191505060405180910390f35b6103d1600480360360208110156103bb57600080fd5b81019080803590602001909291905050506108e1565b604051808273ffffffffffffffffffffffffffffffffffffffff1673ffffffffffffffffffffffffffffffffffffffff16815260200191505060405180910390f35b6104556004803603602081101561042957600080fd5b81019080803573ffffffffffffffffffffffffffffffffffffffff16906020019092919050505061099b565b6040518082815260200191505060405180910390f35b6104736109ea565b604051808273ffffffffffffffffffffffffffffffffffffffff1673ffffffffffffffffffffffffffffffffffffffff16815260200191505060405180910390f35b6104bd610a0f565b6040518080602001828103825283818151815260200191508051906020019080838360005b838110156104fd5780820151818401526020810190506104e2565b50505050905090810190601f16801561052a5780820380516001836020036101000a031916815260200191505b509250505060405180910390f35b6105846004803603604081101561054e57600080fd5b81019080803573ffffffffffffffffffffffffffffffffffffffff16906020019092919080359060200190929190505050610a4c565b005b6105b26004803603602081101561059c57600080fd5b8101908080359060200190929190505050610c76565b6040518082815260200191505060405180910390f35b6105f4600480360360208110156105de57600080fd5b8101908080359060200190929190505050610daa565b604051808781526020018681526020018581526020018481526020018381526020018273ffffffffffffffffffffffffffffffffffffffff1673ffffffffffffffffffffffffffffffffffffffff168152602001965050505050505060405180910390f35b610661610e97565b604051808261ffff1661ffff16815260200191505060405180910390f35b60606040518060400160405280600a81526020017f4b6974747920436f696e00000000000000000000000000000000000000000000815250905090565b6000600115156106cc848461071d565b1515146106d557fe5b60008090505b835181101561071557828482815181106106f157fe5b602002602001015114156107085780915050610717565b80806001019150506106db565b505b92915050565b600080600090505b8351811015610767578284828151811061073b57fe5b6020026020010151141561075a5760018451019050600191505061077c565b8080600101915050610725565b835181141561077a57600091505061077c565b505b92915050565b6000600180549050905090565b60006107996111b0565b6040518060a001604052808581526020014267ffffffffffffffff1681526020018763ffffffff1681526020018863ffffffff1681526020018661ffff16815250905060006001808390806001815401808255809150509060018203906000526020600020906005020160009091929091909150600082015181600001556020820151816001015560408201518160020155606082015181600301556080820151816004015550500390507f0a5311bd2a6608f08a180df2ee7c5946819a649b204b554bb8e39825b2c50ad584828a8a89604051808673ffffffffffffffffffffffffffffffffffffffff1673ffffffffffffffffffffffffffffffffffffffff1681526020018581526020018481526020018381526020018281526020019550505050505060405180910390a16108d360008583610eab565b809250505095945050505050565b6000600180549050821061095d576040517f08c379a00000000000000000000000000000000000000000000000000000000081526004018080602001828103825260198152602001807f5468697320746f6b656e20646f6573206e6f742065786973740000000000000081525060200191505060405180910390fd5b6003600083815260200190815260200160002060009054906101000a900473ffffffffffffffffffffffffffffffffffffffff169050809050919050565b6000600260008373ffffffffffffffffffffffffffffffffffffffff1673ffffffffffffffffffffffffffffffffffffffff168152602001908152602001600020805490509050809050919050565b6000809054906101000a900473ffffffffffffffffffffffffffffffffffffffff1681565b60606040518060400160405280600381526020017f4b54430000000000000000000000000000000000000000000000000000000000815250905090565b600073ffffffffffffffffffffffffffffffffffffffff168273ffffffffffffffffffffffffffffffffffffffff161415610ad2576040517f08c379a000000000000000000000000000000000000000000000000000000000815260040180806020018281038252602c8152602001806111e0602c913960400191505060405180910390fd5b3073ffffffffffffffffffffffffffffffffffffffff168273ffffffffffffffffffffffffffffffffffffffff161415610b57576040517f08c379a000000000000000000000000000000000000000000000000000000000815260040180806020018281038252602581526020018061120c6025913960400191505060405180910390fd5b60011515610bf2600260003373ffffffffffffffffffffffffffffffffffffffff1673ffffffffffffffffffffffffffffffffffffffff168152602001908152602001600020805480602002602001604051908101604052809291908181526020018280548015610be757602002820191906000526020600020905b815481526020019060010190808311610bd3575b50505050508361071d565b151514610c67576040517f08c379a000000000000000000000000000000000000000000000000000000000815260040180806020018281038252601b8152602001807f53656e64657220646f6573206e6f74206f776e20746f6b656e4964000000000081525060200191505060405180910390fd5b610c72338383610eab565b5050565b60008060009054906101000a900473ffffffffffffffffffffffffffffffffffffffff1673ffffffffffffffffffffffffffffffffffffffff163373ffffffffffffffffffffffffffffffffffffffff1614610cd157600080fd5b600a61ffff16600460009054906101000a900461ffff1661ffff1610610d5f576040517f08c379a000000000000000000000000000000000000000000000000000000000815260040180806020018281038252601d8152602001807f5468652067617264656e206f66206564656e2068617320636c6f73656400000081525060200191505060405180910390fd5b6004600081819054906101000a900461ffff168092919060010191906101000a81548161ffff021916908361ffff16021790555050610da36000806000853361078f565b9050919050565b60008060008060008060018781548110610dc057fe5b906000526020600020906005020160000154955060018781548110610de157fe5b906000526020600020906005020160010154945060018781548110610e0257fe5b906000526020600020906005020160020154935060018781548110610e2357fe5b906000526020600020906005020160030154925060018781548110610e4457fe5b90600052602060002090600502016004015491506003600088815260200190815260200160002060009054906101000a900473ffffffffffffffffffffffffffffffffffffffff16905091939550919395565b600460009054906101000a900461ffff1681565b600073ffffffffffffffffffffffffffffffffffffffff168373ffffffffffffffffffffffffffffffffffffffff161415610fa057600260008373ffffffffffffffffffffffffffffffffffffffff1673ffffffffffffffffffffffffffffffffffffffff168152602001908152602001600020819080600181540180825580915050906001820390600052602060002001600090919290919091505550816003600083815260200190815260200160002060006101000a81548173ffffffffffffffffffffffffffffffffffffffff021916908373ffffffffffffffffffffffffffffffffffffffff1602179055506111ab565b6000611039600260008673ffffffffffffffffffffffffffffffffffffffff1673ffffffffffffffffffffffffffffffffffffffff16815260200190815260200160002080548060200260200160405190810160405280929190818152602001828054801561102e57602002820191906000526020600020905b81548152602001906001019080831161101a575b5050505050836106bc565b9050600260008573ffffffffffffffffffffffffffffffffffffffff1673ffffffffffffffffffffffffffffffffffffffff168152602001908152602001600020818154811061108557fe5b9060005260206000200160009055600260008473ffffffffffffffffffffffffffffffffffffffff1673ffffffffffffffffffffffffffffffffffffffff168152602001908152602001600020829080600181540180825580915050906001820390600052602060002001600090919290919091505550826003600084815260200190815260200160002060006101000a81548173ffffffffffffffffffffffffffffffffffffffff021916908373ffffffffffffffffffffffffffffffffffffffff160217905550818373ffffffffffffffffffffffffffffffffffffffff163373ffffffffffffffffffffffffffffffffffffffff167fddf252ad1be2c89b69c2b068fc378daa952ba7f163c4a11628f55a4df523b3ef60405160405180910390a4505b505050565b6040518060a001604052806000815260200160008152602001600081526020016000815260200160008152509056fe446f6e27742073656e6420796f757220746f6b656e20696e746f2074686520656e646c657373206162797373446f6e27742073656e6420796f757220746f6b656e20746f20746869732061646472657373a265627a7a723158205ab80e97982caa3b7cdd1c950c271a89a8de84a0585f77ded2ecd3db060d3cb464736f6c634300050c0032",
  "source": "pragma solidity ^0.5.12;\r\nimport \"./IERC721.sol\";\r\nimport \"./Ownable.sol\";\r\n\r\ncontract Kittycontract is IERC721, Ownable{\r\n\r\n\r\nevent Transfer(address indexed from, address indexed to, uint256 indexed tokenId);\r\nevent Birth(address owner, uint256 kittenId, uint256 momId, uint256 dadId, uint256 genes);\r\n\r\n//is there benefit of 256 instead of a smaller 16?\r\nuint16 private constant gen0Limit = 10;\r\nstring private constant _name= \"Kitty Coin\";\r\nstring private constant _symbol = \"KTC\";\r\n\r\nstruct Kitty{\r\n    uint256 genes;\r\n    uint256 birthTime;\r\n    uint256 dadID;\r\n    uint256 momID;\r\n    uint256 generation;\r\n}\r\n\r\nKitty[] kitties;\r\n\r\nmapping(address=>uint256[]) private _owners;    //is this a wallet that wouldn't be in this contract?\r\nmapping(uint256 =>address) private _tokenOwner; //is this unnecessary?\r\n\r\n\r\nuint16 public gen0Counter;\r\n\r\nfunction createKittyGen0(uint256 _genes) public onlyOwner returns(uint256){\r\n   require(gen0Counter<gen0Limit, \"The garden of eden has closed\");\r\n   gen0Counter ++;\r\n   \r\n   return _createKitty(0, 0, 0, _genes, msg.sender);\r\n}\r\n\r\nfunction getKitty(uint256 tokenId) public view returns(\r\n    uint256 genes, \r\n    uint256 birthTime, \r\n    uint256 dadID, \r\n    uint256 momID, \r\n    uint256 generation,\r\n    address owner){\r\n   \r\n    genes = kitties[tokenId].genes;\r\n    birthTime = kitties[tokenId].birthTime;\r\n    dadID = kitties[tokenId].dadID;\r\n    momID = kitties[tokenId].momID;\r\n    generation = kitties[tokenId].generation;\r\n    owner = _tokenOwner[tokenId];\r\n    \r\n\r\n}\r\n\r\nfunction _createKitty(uint256 _momID, uint256 _dadID, uint256 _generation, uint256 _genes, address _owner) public \r\nreturns(uint256){\r\n    Kitty memory _kitty = Kitty({\r\n        genes: _genes, \r\n        birthTime: uint64(now),\r\n        momID: uint32(_momID),\r\n        dadID: uint32(_dadID),\r\n        generation: uint16(_generation)\r\n    });\r\n\r\n    uint256 newKittenId = kitties.push(_kitty)-1; //returns length of new array\r\n    emit Birth(_owner, newKittenId, _momID, _dadID, _genes);\r\n    \r\n    _transfer(address(0), _owner, newKittenId);\r\n    \r\n    return newKittenId;\r\n}\r\n\r\n//do I need to indicate a \"return\" if I specify the variable name in the \"returns(uint256 balance)\" parameter?\r\n//also, do I need to delcare \"uint256 balance\" again or is that optional?\r\n    function balanceOf(address owner) external view returns (uint256 balance){\r\n        balance = _owners[owner].length;\r\n        return balance;\r\n    }\r\n\r\n    function totalSupply() external view returns (uint256 total){\r\n        return kitties.length;\r\n    }\r\n\r\n    function name() external view returns (string memory tokenName){\r\n        return _name;\r\n    }\r\n\r\n    function symbol() external view returns (string memory tokenSymbol){\r\n        return _symbol;\r\n    }\r\n\r\n    function ownerOf(uint256 tokenId) external view returns (address owner){\r\n        require(tokenId < kitties.length, \"This token does not exist\");\r\n        owner = _tokenOwner[tokenId];\r\n        return owner;\r\n    }\r\n\r\n\r\n    function arrayContains(uint256[] memory array, uint256 value) public pure returns(bool){\r\n        uint i = 0;\r\n        while(i< array.length){\r\n            if(array[i]==value){\r\n                i=(array.length +1);\r\n                return true;\r\n            }\r\n            else{i++;}\r\n        }\r\n        if(i==array.length)return false;\r\n    }\r\n\r\n    function valueArrayIndex(uint256[] memory array, uint256 value) public pure returns(uint256){\r\n        //is this an assert or require?  Or better for a boolean return?\r\n        assert(arrayContains(array, value)==true);\r\n        for(uint i = 0; i<array.length; i++){\r\n            if(array[i]==value) return i;\r\n        }\r\n    }\r\n\r\n    function transfer(address to, uint256 tokenId) external{\r\n        require(to != address(0), \"Don't send your token into the endless abyss\");\r\n        require(to != address(this), \"Don't send your token to this address\");\r\n        require(arrayContains(_owners[msg.sender], tokenId)==true, \"Sender does not own tokenId\");\r\n        \r\n        _transfer(msg.sender, to, tokenId);\r\n    }\r\n    //can we overload with a different access modifier?\r\n    function _transfer(address from, address to, uint256 tokenId) internal{\r\n        if(from==address(0)) {\r\n            _owners[to].push(tokenId);\r\n            _tokenOwner[tokenId]=to;\r\n        }\r\n        else{\r\n        uint256 index = valueArrayIndex(_owners[from], tokenId);\r\n        //does the delete actually remove or just replace with zeros?\r\n        delete _owners[from][index];\r\n        _owners[to].push(tokenId);\r\n        _tokenOwner[tokenId] = to;\r\n        emit Transfer(msg.sender, to, tokenId);\r\n            }\r\n    }\r\n}",
  "sourcePath": "C:\\Users\\yan\\Documents\\GitHub\\CryptoKitties\\contracts\\Kittycontract.sol",
  "compiler": {
    "name": "solc",
    "version": "0.5.12+commit.7709ece9.Emscripten.clang"
  },
  "schemaVersion": "3.2.0",
  "updatedAt": "2020-10-29T16:13:38.560Z",
  "networkType": "ethereum",
  "devdoc": {
    "methods": {}
  },
  "userdoc": {
    "methods": {}
  }
}